:030000000214C91E
:1014C90078FFE4F6D8FD9000007F007E04E4F0A3E5
:0A14D900DFFCDEFA75814E02151EDD
:101EF30075D21375D36475D11275D6BFE4F5D44387
:031F0300A902220E
:030043000218E7B9
:1018E700C0E0C0D075D000C006C00753D2BF053FC7
:1018F700E53FAE3E7002053E14D39541EE9540405C
:1019070033753E00753F00AFD6EF700B754201F59A
:101917004375400175412CAFD6EF64BF700AF5429D
:10192700754301F540754196E542600205D6E543EA
:0D193700600215D6D007D006D0D0D0E03227
:101EAC007E007F067D007B007A00793E120A31535A
:081EBC00D27FE4F5D3F5D62234
:101E7A007E007F067D007B007A00793E120A31538C
:091E8A00D27FE4F5D375D6FF22E6
:071FAC00121EF343D2802254
:051CB200EF6402702246
:101CB700F50AF50B758FC0759D50F50A750B4E85A6
:101CC7000B9EE50AF59575A90143A101D2A0E4FE93
:021CD700FF22EA
:051CD9007EFF7FFF22E9
:1015F5008B128A138914EF64017027E5161516AC52
:1016050015700215154C605CC299AB120514E514F2
:10161500AA137002051314F912086AF5992099DBCB
:1016250080FBEF6402703DE5217039D3E516940720
:10163500E5159400502E7E007F0C7D007B007A001E
:101645007921120A31AE15AF1678267C007D00ABE4
:1016550012AA13A91412084485152285162375218B
:051665000185269F2213
:101F0600E4F58E758911758A18758CFCC28CD2A978
:031F1600D28C2248
:061E9300044800000000FD
:0A1F6E00E4F54BF54AF549F5482269
:101E4600AF4BAE4AAD49AC48EF2401F54BE43EF545
:0A1E56004AE43DF549E43CF548225A
:091F8200AF4BAE4AAD49AC482258
:101DF3008F478E468D458C44121F821209C7AF4709
:0C1E0300AE46AD45AC449000040209E17D
:101C82008B4C8A4D894E900004120997120A05C3A3
:101C9200E54B9BFBE54A9AFAE54999F9E54898F83C
:101CA200C3120960E440047F018001FFFEFDFC22B3
:031DB900E4FFFE46
:101DBC00EF1FAA0670011E4A600FE4FDEDD39400DC
:091DCC007480948040EA1D80F34C
:011DD50022EB
:091F8B00120928FFAEF0021F3D0F
:101821008B118A128913120928FFAEF07B017A000D
:10183100E4FDFC121D0A121DB9AB11AA12A9131263
:101841000928FFAEF07B017A007D017C00121D0AA0
:10185100121DB9AB11AA12A913120928FFAEF0E4A7
:10186100FBFAFDFC121D0AE4FFFE121DBCAB11AA1E
:1018710012A913120928FFAEF0E4FBFA7D01FC1254
:081881001D0AE4FFFE021DBC7C
:060FF300AB0AAA0BA90CD9
:080FF9008B118A1289138D147B
:10100100E4F515C3E515940874809480506EE514D9
:10101100AB11AA12A91330E70D120928FFAEF07B1C
:10102100017A00E48009120928FFAEF0E4FBFAFD21
:10103100FC121D0AE51425E0F514E4FFFE121DBCA7
:10104100AB11AA12A913120928FFAEF07B017A0095
:101051007D017C00121D0AE4FFFE121DBCAB11AA2A
:1010610012A913120928FFAEF0E4FBFA7D01FC126C
:101071001D0AE4FFFE121DBC05158087AB11AA12E3
:10108100A913120928FFAEF0E4FDFC121E60AB119A
:10109100AA12A913120928FFAEF07B017A007D0183
:1010A1007C00121D0AE4FFFE121DBCAB11AA12A99D
:1010B10013120928FFAEF0E4FDFC121E0FEF4E6083
:1010C10005E4F5168003751601AB11AA12A91312D6
:1010D1000928FFAEF0E4FBFA7D01FC121D0AE4FFD2
:1010E100FE121DBCAB11AA12A913120928FFAEF002
:0B10F1007D017C00121E60AF167E0027
:0110FC0022D1
:101944008B118A128913120928FFAEF0E4FBFA7D89
:1019540001FC121D0AE4FFFE121DBCAB11AA12A960
:1019640013120928FFAEF07B017A007D017C00127E
:101974001D0AE4FFFE121DBCAB11AA12A913120921
:1019840028FFAEF07B017A00E4FDFC121D0AE4FF9F
:0B199400FE121DBC7FE87E03021DBC9C
:1016DB008B118A128913120928FFAEF07B017A0055
:1016EB00E4FDFC121D0AE4FFFE121DBCAB11AA1295
:1016FB00A913120928FFAEF07B017A007D017C0053
:10170B00121D0AE4FFFE121DBCAB11AA12A9131283
:10171B000928FFAEF0E4FBFA7D01FC121D0AE4FF81
:10172B00FE121DBCAB11AA12A913120928FFAEF0B1
:0E173B00E4FBFAFDFC121D0AE4FFFE021DBCD9
:061389008B118A1289138A
:10138F00E4F514120928FFAEF0E4FDFC121E60E430
:10139F00FFFE121DBCE4F515C3E515940874809487
:1013AF00805061AB11AA12A913120928FFAEF07B6E
:1013BF00017A007D017C00121D0AE4FFFE121DBCA4
:1013CF00AB11AA12A913120928FFAEF0E4FDFC120B
:1013DF001E0FEF4E600FAF15A8077480088002C371
:1013EF0013D8FC4214AB11AA12A913120928FFAE8D
:1013FF00F0E4FBFA7D01FC121D0AE4FFFE121DBC96
:10140F0005158094AB11AA12A913120928FFAEF08B
:09141F007D017C00121E60AF1477
:0114280022A1
:101B42008D0D8B0A8A0B890C121821AB0AAA0BA9DC
:101B52000CAD0D120FF9EF4EAB0AAA0BA90C7007D0
:101B6200121944E4FEFF22121389AB0EAA0FA91028
:101B7200EF120883AB0AAA0BA90C1216DBAB0AAA56
:0B1B82000BA90C1219447E007F012209
:101BD7008D0D8B0A8A0B890C121821AD0D120FF38C
:101BE700EF4E7008AB0AAA0BA90C800FAD0E120FAF
:101BF700F3EF4EAB0AAA0BA90C7007121944E4FEC7
:101C0700FF221216DBAB0AAA0BA90C1219447E009D
:031C17007F012228
:0F1F3D00EF4E70064391304390307E007F0122BB
:101E6000EF4E7012ED4C70055391DF8009ED640167
:0A1E70004C7003439120E4FEFF22B2
:101D0A00EF4E7020ED4C700CEB4A6004D2958014B3
:101D1A00C2958010ED64014C700AEB4A6004D294BB
:081D2A008002C294E4FEFF22D6
:101E0F00EF4E7014ED4C7004A2958008ED64014CF8
:0C1E1F007006A294FE33FF22E4FEFF22B6
:080003001214291203FB80FB1B
:0A1E9900430096000000023600002E
:101DD600439A0243A1FC43D90353A23FD2A7D2D9C7
:0D1DE600D2D8D2A2D2A5D2A4D2A3D28122FB
:1017B60090005FE064017010C2D9C2A7900062E099
:1017C60054FEF0121EAC801790005FE06402702297
:1017D600C2D9900062E054FEF0121EAC121E7A7B53
:1017E600017A007992900094E0FD900062E0F50E97
:1017F6008025121EAC900078E06003121FACD2D98F
:10180600D2A7900062E04401FFF07B017A00799252
:0B181600900094E0FD8F0E121BD72203
:100AEB0090005EE07003020B9A900062E0A3F0901E
:100AFB000078E0700690005EE0600B900062E054BE
:100B0B00DFF0C2A38009900062E04420F0D2A390F2
:100B1B00005FE0FD7C00700B900062E04401F0D2BE
:100B2B00D98017ED64014C600890005FE06402709F
:100B3B0009900062E054FEF0C2D9900079E06401A4
:100B4B00700BC2A4900062E054EFF08009D2A49025
:100B5B000062E04410F090007AE06401700BC2D8A0
:100B6B00900062E054FDF08009D2D8900062E0441E
:100B7B0002F0C281900062E04440FFF07B017A00FA
:100B8B007992900094E0FD8F0E121BD7020C7E9091
:100B9B00007DE0603DE4F090008404F0E490008A76
:100BAB00F0A3F0900062F0900078F0900062E044C7
:100BBB00BFFFF07B017A007992900094E0FD8F0EDD
:100BCB00121BD7D2D9D2D8D2A2D2A5D2A4D2A3D219
:100BDB008122900063E0900062F090005FE0FD7C6A
:100BEB0000700B900062E04401F0D2D98017ED64E5
:100BFB00014C600890005FE064027009900062E0B5
:100C0B0054FEF0C2D9900078E0700690005EE06070
:100C1B000B900062E054DFF0C2A38009900062E009
:100C2B004420F0D2A3900079E06401700BC2A49031
:100C3B000062E054EFF08009D2A4900062E044100F
:100C4B00F090007AE06401700BC2D8900062E0541F
:100C5B00FDF08009D2D8900062E04402F07B017A6B
:100C6B00007992900094E0FD900063E0F50E121B6A
:100C7B00D7D28190007C7401F0E490008AF0A3F04D
:010C8B002246
:101EDC0090005EE0701090007C04F090007BF0E4C9
:071EEC0090008AF0A3F02230
:101EC40090005EE0701190007C04F090007B04F0C0
:081ED400E490008AF0A3F02263
:1018890090005EE0705790007C04F0900078E07062
:101899001A900062E054DFF0C2A39000787401F05E
:1018A90090005FE0701C121FAC8017900062E0444A
:1018B90020F0D2A3E4900078F090005FE07003126A
:1018C9001EAC7B017A007992900094E0FD90006251
:0E18D900E0F50E121BD7E490008AF0A3F02277
:10199F0090005EE0705390007C04F0900079E0645A
:1019AF00019000626019E054EFF09000797401F03B
:1019BF00900080F0E490008EF0A3F0C2A4800FE0BE
:1019CF004410F0D2A4E4900079F0900080F07B01F5
:1019DF007A007992900094E0FD900062E0F50E128B
:0A19EF001BD7E490008AF0A3F02259
:1019F90090005EE0705190007C04F090007AE090D5
:101A090000627019E054FDF090007A7401F09000C2
:101A190081F0E4900090F0A3F0C2D8800FE0440276
:101A2900F0D2D8E490007AF0900081F07B017A003E
:101A39007992900094E0FD900062E0F50E121BD7B8
:081A4900E490008AF0A3F022F2
:03003E00020AEBC8
:031FB300021EC447
:031FB600021EDC2C
:1017490090005EE0706690007C04F0E53A70537595
:101759003A01900097E004F024FE601D14603224E1
:1017690002702E90005FE0640260377402F090000E
:101779008214F0E4900086801390005FE0640160B9
:10178900217401F0900083F0E4900088F0A3F080C8
:1017990011E490005FF0900083F0900082F09000D7
:0D17A90097F01217B6E490008AF0A3F0222A
:031FB90002199F6B
:041C1A00AD07AC0660
:101C1E00750A55750B01ECF50CEDF50DE50A250B66
:101C2E00250C250DF50E750F0D75100A7B007A002B
:101C3E00790A7515007516077F021215F5E4FEFF79
:011C4E002273
:1011EA00900045E020E7030212CD547FF0120C8CE8
:1011FA00900061EFF014607224FD605E24FC604A86
:10120A0024F8603324F0601B24E0706E900065E0DF
:10121A00644070030212CA7440F0753C01753D01C6
:10122A000212CA900065E0642070030212CA742098
:10123A00F0121FB90212CA900065E064107003022E
:10124A0012CA7410F0121FB38076900065E0640829
:10125A00606E7408F0121FB68066900065E0640440
:10126A00605E7404F01219F98056900065E064011A
:10127A00604E7401F01217498046900065E06040A4
:10128A00E4F0753C02F53DF538F539F53AD2A5D2C8
:10129A00A2900062E04404F04408FFF07B017A0067
:1012AA007992900094E0FD8F0E121BD7E490005CB7
:1012BA00F090007BE06009A37401F0E490007BF0F9
:0412CA00121FBF220E
:10142900121DD6121EF3121EAC7F02121CB2121F1D
:1014390006121F6EE4F508F509AE08E5097802C33E
:1014490033CE33CED8F9FF2492F58274003EF5836A
:10145900E508F0A3E509F04508701A74952FF5829F
:1014690074003EF583745BF074942FF58274003E2A
:10147900F583745AF074922FF974003EFA7B0112C5
:101489001F8B0509E50970020508C39401E5086485
:1014990080948040A4439280900062E05440FFF021
:1014A9007B017A007992900094E0FD8F0E121BD790
:0F14B90012166A90007C7401F0900084F0D2AF9C
:0114C8002201
:1003FB0075CF101211EA3097030204EC900095E0D0
:10040B00FD750E01750F007510607B017A007992F6
:10041B00121B42900060E024FE602824FE6038240A
:10042B00FC604724F8605424F06060241F706C90CB
:10043B000064E0640870030204EC7408F0121FB649
:10044B000204EC900064E0640270030204EC74029A
:10045B00F01219F90204EC900064E06404700302DA
:10046B0004EC7404F01217498077900064E0640187
:10047B00606F7401F0F53CF53D8066900064E064BC
:10048B0010605E7410F0121FB98056900064E06427
:10049B0020604E7420F0121FB38046900064E06021
:1004AB0040E4F0753C02F53DF538F539F53AD2A547
:1004BB00D2A2900062E04404F04408FFF07B017A82
:1004CB00007992900094E0FD8F0E121BD7E4900000
:1004DB005DF090007BE06009A37401F0E490007B79
:1004EB00F0E53B1460121460482402704EE53C6446
:1004FB00017048753B018043E53C6402700C121897
:10050B0089E4F53BF53CF538F539D3E53994DCE571
:10051B003894054026753B02E4F538F53990005EBA
:10052B00E0700404F08005E490005EF012003E8061
:10053B000AE53C64027004F53BF53C900085E060F5
:10054B001F7B017A007992900094E0FD900062E0AD
:10055B00F50E121BD7E4900085F090008CF0A3F001
:09056B0090007CE0700302063EE2
:10057400E4F508F509F0900078E0FF640170085391
:1005840009FD4309018009EF70065309FE4309027E
:1005940090007BE060046403700B5309BF53097F30
:1005A400430920802290007BE0FF6401700B530814
:1005B400FE53097F430940800EEF6402700953091A
:1005C400BF5309BF43098090005FE0FF6401700BD3
:1005D4005309F75309FB4309108019EF6402700BA8
:1005E4005309FB5309EF43090880095309EF5309E1
:1005F400F7430904900079E0FF640170085308DFB1
:100604004308108009EF70065308EF430820900058
:100614007AE06401700853087F430840800C90001E
:1006240079E070065308BF430880900076E508F02F
:0A063400A3E509F0FFAE08121C1A3E
:10063E0090007FE06011E4F090007EF0900076E094
:10064E00FEA3E0FF121C1AC3900089E094109000E4
:10065E0088E0940E404890005FE064017040F09096
:10066E00007C04F0D2D9D2A7753C02E4F53DF538F2
:10067E00F539F53A900097F0900078E06005121F7A
:10068E00AC8003121EAC900062E04401FFF07B01CF
:10069E007A007992900094E0FD8F0E121BD7C390D2
:1006AE000087E09420900086E0941C404890005F04
:1006BE00E064027040F090007C04F0D2D9D2A775AD
:1006CE003C02E4F53DF538F539F53A900097F09097
:1006DE000078E06005121FAC8003121EAC90006221
:1006EE00E04401FFF07B017A007992900094E0FDE6
:1006FE008F0E121BD7C390008FE0940890008EE0EF
:10070E0094074028900079E064017020F090007CFE
:10071E0004F0D2A4900062E04410FFF07B017A0056
:10072E007992900094E0FD8F0E121BD7C39000912A
:10073E00E09410900090E0940E402A90007AE064CD
:10074E00017022F090007C04F0D2D8D2A790006203
:10075E00E04402FFF07B017A007992900094E0FD74
:06076E008F0E121BD722C2
:03003B00021B8D18
:0D1B8D00C0E0C0D075D000C000C006C00789
:101B9A00751D00E59D30E12A539DFDE52324FFFFD5
:101BAA00E52234FFFEEFB5250BEEB52407752100BB
:101BBA00D2A0800E0525E525700205242426F8E624
:021BCA00F59F85
:0B1BCC00D007D006D000D0D0D0E0320F
:03000B000210FDE3
:1010FD00C0E0C0F0C083C082C0D075D000C000C0B9
:0D110D0001C002C003C004C005C006C00739
:10111A00758A18758CFC121E46E53D60080539E58E
:10112A0039700205380537E537AE367002053614D0
:10113A00D394E8EE940350030211CF753600753745
:10114A0000900083E0601E900088E475F0011209A7
:10115A0012FED3E5F09410EE940E4009900083E459
:10116A00F090005FF0900082E0601A900086E475CB
:10117A00F001120912FED3E5F09420EE941C40050A
:10118A00900082E4F0900080E0601A90008EE4758E
:10119A00F001120912FED3E5F09408EE9407400517
:1011AA00900080E4F0900081E0601A900090E4756D
:1011BA00F001120912FED3E5F09410EE940E4005E8
:0511CA00900081E4F03B
:1011CF00D007D006D005D004D003D002D001D00074
:0B11DF00D0D0D082D083D0F0D0E0321E
:101AA4000000000000000005000A0BB800C8006434
:101AB40000020000000000040000FFFFFFFFFFFF22
:101AC4000014022604081105007C022604080E05F1
:101AD400006C022604080E05006A0226040810059C
:101AE4000067022604081205007002260408130584
:021AF400005F91
:041EA30041005B009F
:0B1F5800901AAEE493FE740193FF2288
:0B1F6300901AB2E493FE740193FF2279
:081F9400901AAC740193FF22C6
:031FBC007F012280
:101CDE00AD07ED75F008A424CCF582E4341AF58333
:101CEE00E493FEED75F008A424CDF582E4341AF5E4
:0C1CFE0083E4937C002400FFEC3EFE22F7
:101F1900EF75F008A424C9F582E4341AF583E49333
:021F2900FF2295
:081F9C00901AA6740193FF22C4
:101F2B00EF75F008A424CAF582E4341AF583E49320
:021F3B00FF2283
:081FA400900000E0C313FF22CE
:0A1F7800900000E075F00384FF22E2
:10004600121CDEEF7803C333CE33CED8F9FF7C0023
:050056007D0A0208A76D
:101A5100E4FBFAF50DF50CF50BF50A750D7DF50CAA
:101A6100F50BF50AEBC39417748094805032AF0DD7
:101A7100AE0CAD0BAC0A78011209718F0D8E0C8D75
:101A81000B8C0A30D71774132AF582E43400F583DE
:101A9100EBF00AEAC394067480948050030B80C46F
:021AA1008A3584
:011AA3002220
:10000E00EF1460121460141460111460152404703F
:10001E0019901AC68008901AC78003901AC8E493E4
:0D002E00FF22901AB8740193FF227F002278
:101D7C00901AAA740193900000F0901AC474019305
:0F1D8C00900048F0121A51E4900046F0A3F022A4
:100C8C00E4F50AF50EF50DF50CF50BF512F511F56D
:100C9C0010F50F121FC25003020DA8121D578F0E14
:100CAC008E0D8D0C8C0BE4FBEBC395355047AF0EC2
:100CBC00AE0DAD0CAC0B78011209718F0E8E0D8D33
:100CCC000C8C0B30D72CE47F01FEFDFC74132BF540
:100CDC0082E43400F583E0F9F8120984E5124FF54B
:100CEC0012E5114EF511E5104DF510E50F4CF50F11
:100CFC00050A0B80B3AF0A7E00C3EF940274809494
:100D0C00804018D200EF9403748094804005121F29
:100D1C00C58008121F9CEF6002C20020002CE4FF6B
:100D2C00FEFDFCAB12AA11A910A80FC3120960603A
:100D3C0010900047E004F07006900046E004F0804C
:100D4C0020E4900046F0A3F08017900044E004F0FB
:100D5C007006900043E004F0E4F512F511F510F57F
:100D6C000F121F58D3900047E09F900046E09E4022
:100D7C000A121FC5E4900046F0A3F0D3900044E0A3
:100D8C00942C900043E09401401D121FC590005B11
:100D9C007401F0E4900043F0A3F0800B901AB4E4DB
:0F0DAC00740193FF120DBCAF12AE11AD10AC0F5E
:010DBB002215
:041EA70041009F0057
:100EDB0075F002900049120A25E0FEA3E0FFE5152C
:100EEB0075F002900019020A25E51475F0029000C6
:100EFB0001020A25E51475F002900031020A2574EF
:100F0B00252518F582E43400F58322D3E5169FEEF0
:100F1B006480F8E51564809822743D2514F582E40D
:100F2B003400F58322D3FFED9FEE6480F8EC6480F0
:100F3B00982274552514F582E43400F58322E004DD
:100F4B00F0740D2514F582E43400F58322E5157554
:100F5B00F002900049020A25FEC3E5179FEE64805C
:100F6B00F8E51664809822E5305534FFE52F5533AC
:100F7B00FEE52E5532FDE52D5531FC22742B251443
:100F8B00F582E43400F58322E4F0FFFEFDFCAB3088
:100F9B00AA2FA92EA82DC30209607E0090009BE00A
:100FAB00FCA3E0FD1208958EE78FE622E0FEA3E09E
:100FBB00FF75F00222A4FFE0C39FE5F06480F87494
:100FCB00809822900048E0FB3395E0FAEBAE0222CA
:100FDB00E0FCA3E0FDEF22E0FCA3E0C39F22900026
:080FEB0048E0FF3395E0FE220F
:0C1F4C00EF4E6007EF1F70F81E80F522BA
:03005B0002156328
:10156300C0E0C0F0C083C082C0D075D000C000C04E
:0D15730001C002C003C004C005C006C007CF
:10158000C2029000A0E0120EEBE5E5F0A3E5E4F066
:101590009000A0E004F0E0C39535400BE4F090002B
:1015A00045E04480F08002D2029000A0E0FF121FCC
:1015B00019120FA59000A0E0FF121F2BE5E2548046
:1015C0004FF5E29000A0E02413F582E43400F583A7
:0A15D000E04480F5E8300202D2EE9C
:1015DA00D007D006D005D004D003D002D001D00065
:0B15EA00D0D0D082D083D0F0D0E0320F
:10166A00D2AF75E880C201E49000A0F0900045F086
:10167A00121D7CE4FF12000EEF2401FDE433FC7E10
:10168A000B7FB81208A790009BEEF0A3EFF0E4FFDF
:10169A00121F19120FA57F0212000EEFC454F0FE9A
:1016AA00C006E4FF12000ED0E02FF5E17F0312001E
:1016BA000EE5E254804FF5E27F0112000E8FE3122D
:1016CA001AF643A910900013E042E8121C4F021EBA
:0116DA002BE4
:031FBF00D2EE223D
:101D3200E4FD900045E0547FF0D2EE900045E020B3
:101D4200E7127FE87E03121F4C43CF100DEDC394C0
:041D52003240E82211
:011D5600226A
:101C4F00750A10121D32AF0A150AEF70F6121D9B9E
:101C5F00121F948F0A121D32E4F50BE50BC3953555
:101C6F005009AF0B1212CE050B80F0AF0A150AEF19
:021C7F0070E310
:011C81002240
:101E2B00E4FFEFC395355012EF120EEB120FDB12DE
:0A1E3B000EF6ECF0A3EDF00F80E8C6
:011E4500227A
:101D5700E49000A1F0F513E513C39535500EAF13CA
:101D67001212CEAF1312005E051380EBAF30AE2F09
:041D7700AD2EAC2DB4
:011D7B002245
:02005E008F14FD
:10006000E4F51C75F002EF120EF9120FB7E5141249
:100070000EEE120FE2F516EC9EF515E47F01FEFD83
:10008000FCA914A8011209848F348E338D328C316F
:10009000AF14121CDE8E1A8F1BC3E516951BE51AD2
:1000A000120F1B40057517018003E4F517E517646F
:1000B0000160030201E574252514120F0EE0C394BC
:1000C000FA500A74252514120F0EE004F0120F7274
:1000D000E4FBFAF9F8C312096060030201C890005A
:1000E00000E0F519121FBCEF6028E4F517F518E5DC
:1000F00018C39535500F120F0AE0C3940140020552
:1001000017051880EAE517C394034006740F2519F4
:10011000F51974252514120F0EE0C395195003022A
:1001200001C8E4F517121F9CEF7051F518E518C3CC
:100130009535501AE51465186010121F78120F0AD1
:10014000E0C39F40057517018004051880DF121F6A
:10015000BCEF7052E517704EF518E518C395355091
:1001600045E51465186011121F78742B2518120FBD
:100170008BE0C39F4002802B051880DE121FBCEF6E
:100180007024F519F518E518C39535500F120F0AAC
:10019000E0C3940240020519051880EAE519C394EA
:1001A000034003751701E517B40102D200E530459D
:1001B00034FFE52F4533FEE52E4532FDE52D453173
:1001C0008F308E2F8D2EF52D120F24E4F0120F3D5F
:1001D000E4F0120EFFE4F0A3F0740D2514F582E4B0
:1001E00034000203B8AF14120046120F1640081272
:1001F0000F87E004F0800B9000A1E004F0120F875D
:10020000E4F0120FE9C3E49FFDE49EFCC3E5169DF4
:10021000EC120F1B4066120F165061120F24E412ED
:100220000F4B120F936003020325120EFFE5158595
:1002300016F01208FC121F63120EFFE0FCA3E0C3CD
:10024000120F334009120EF4E475F0018021121FE1
:1002500063C3E49FFFE49EFE120EFFE0FCA3E0C335
:10026000120F334003020325120EF474FFF5F0124F
:1002700008FC120EFFE4F0A3F0020325900048E012
:10028000FFFD3395E0FCC3E49DFDE49CFCC3E51653
:100290009DEC120F1B5057120F24120F49E4F0125D
:1002A0000F24E0FE75F00A84E5F07034EEC3946428
:1002B000400E120F24E4F0D20190005B04F0802085
:1002C000120EF4C083C082120FDBA2E713FF339536
:1002D000E0FEC3ED9FFFEC9ED082D083F0A3EFF051
:1002E00090009AE06514703D74FFF0020325120F30
:1002F000E9120F16402F120F24120F937027120FBE
:100300004C120F49E0B4201D120F4CE4F09000484D
:10031000E0A2E713A2E713FF3395E0FE120EF4EE1E
:100320008FF01208FC120F724D4E4F70030203C47F
:10033000E51BAE1A7802CEA2E713CE13D8F8FFC39E
:10034000E51B9FFFE51A9EFEC3120F17506F120F99
:100350003DE004F0121FA48F19E4F518E518C395C9
:1003600035500F120F0AE0C394014002051705181B
:1003700080EAE517C394034006900000E0F51912E7
:100380000F3DE0C395194072120F3DE4F0AF34AE5B
:1003900033AD32AC31120953E5305FFFE52F5EFE1D
:1003A000E52E5DFDE52D5C8F308E2F8D2EF52D74A5
:1003B000252514F582E43400F583E4F022120F3D84
:1003C000E014F02274252514120F0EE4F0E5351424
:1003D000651470269000A1E0C39535401DE4F51822
:1003E000E518C39535500D120F0AE060037517012B
:0A03F000051880ECE5177002C2004A
:0103FA0022E0
:101D9B00E4FFEFC39535501575F002EF120EEE12FE
:0D1DAB000FDB120F5AECF0A3EDF00F80E5F6
:011DB8002208
:0212CE008F157A
:1012D000EF120EDB120FE2F517EC9EF516AF1512AA
:1012E0001CDEAD07AC06D3E5179DEC120F69500B61
:1012F000C3E49DFFE49C120F63500B120EE9E0FE65
:10130000A3E0FF021376ECA2E713FEED13FFD31266
:101310000F65500BC3E49FFFE49E120F635027122A
:101320000F58E0FCA3E0FDECC313FEED13FFC3ED8B
:101330009FFDEC9EFC120EE9E0C313FEA3E0132D0B
:10134000FFEC3EFE8030120F58E0FCA3E0FDAE043F
:101350007803CEC313CE13D8F9FFC3ED9FFDEC9EE7
:10136000FC120EE9E0FEA3E07803CEC313CE13D83F
:10137000F92DFFEC3EFE120F58EEF0A3EFF0E5154D
:08138000120EDBEEF0A3EFF00A
:011388002242
:031FC200A2012257
:031FC500D2012224
:101AF600E4FFEFC39535502B74252F120F0EE4F03B
:101B0600743D2F120F28E4F074552F120F41E4F0A4
:101B1600EF120F01E4F0A3F0742B2F120F8BE4F0F9
:101B26000F80CFE4F530F52FF52EF52D90009A7441
:0B1B3600FFF0E490009DF0A3F0C2015E
:011B41002281
:020DBC008F1393
:100DBE0090009FE0C394034035E4F090005BE07038
:100DCE0022F514E514C39535501975F002E5141289
:100DDE000F5D120FB7E514120EF9EEF0A3EFF0054A
:100DEE001480E0121AF6C201E490005BF02290002B
:100DFE0099E004F0E0B51308121D9BE490009AF000
:100E0E00900099E0D395135003020EDAE4F514E541
:100E1E0014C39535507A75F002E514120F5D120F5A
:100E2E00B7E514120EEE120FE2FFEC9EAD07FC902A
:100E3E00005BE07029120FCE7802C333CE33CED8CA
:100E4E00F9120F304040E49BFFE49AFEEF7802C3A4
:100E5E0033CE33CED8F9C3120F31502A8032120F4F
:100E6E00CE7803C333CE33CED8F9120F304017E409
:100E7E009BFFE49AFEEF7803C333CE33CED8F9FF4F
:100E8E00C3120F32400AAF141212CE0514020E1DF9
:100E9E00E514B5350690009AE004F0E51375F008F8
:100EAE00900099120FC04024E4F0C20090009FE021
:100EBE0004F0E51375F00490009A120FC0400DE493
:0C0ECE0090009FF0121E2B121AF6C201B9
:010EDA0022F5
:1014E300020003E493A3F8E493A34003F68001F21C
:1014F30008DFF48029E493A3F85407240CC8C3330A
:10150300C4540F4420C8834004F456800146F6DFD8
:10151300E4800B0102040810204080901E93E47EB7
:10152300019360BCA3FF543F30E509541FFEE493CD
:10153300A360010ECF54C025E060A840B8E493A394
:10154300FAE493A3F8E493A3C8C582C8CAC583CABF
:10155300F0A3C8C582C8CAC583CADFE9DEE780BE77
:011EAB000036
:10077400E709F608DFFA8046E709F208DFFA803E67
:1007840088828C83E709F0A3DFFA8032E309F60854
:10079400DFFA8078E309F208DFFA807088828C83BC
:1007A400E309F0A3DFFA806489828A83E0A3F60870
:1007B400DFFA805889828A83E0A3F208DFFA804C4A
:1007C40080D280FA80C680D4806980F28033801021
:1007D40080A680EA809A80A880DA80E280CA80338A
:1007E40089828A83ECFAE493A3C8C582C8CCC58302
:1007F400CCF0A3C8C582C8CCC583CCDFE9DEE780D2
:100804000D89828A83E493A3F608DFF9ECFAA9F050
:10081400EDFB2289828A83ECFAE0A3C8C582C8CCA6
:10082400C583CCF0A3C8C582C8CCC583CCDFEADEBF
:10083400E880DB89828A83E493A3F208DFF980CC21
:1008440088F0EF60010E4E60C388F0ED2402B4041A
:100854000050B9F582EB2402B4040050AF232345C1
:0608640082239007C4731B
:10086A00BB010689828A83E0225002E722BBFE028C
:09087A00E32289828A83E49322BF
:10088300BB010689828A83F0225002F722BBFE0154
:02089300F3224E
:10089500EF8DF0A4A8F0CF8CF0A428CE8DF0A42E77
:0208A500FE2231
:1008A700BC000BBE0029EF8DF084FFADF022E4CC35
:1008B700F875F008EF2FFFEE33FEEC33FCEE9DECFE
:1008C700984005FCEE9DFE0FD5F0E9E4CEFD22ED44
:1008D700F8F5F0EE8420D21CFEADF075F008EF2F8E
:1008E700FFED33FD4007985006D5F0F222C398FD7F
:0508F7000FD5F0EA221C
:1008FC00C5F0F8A3E028F0C5F0F8E5821582700287
:06090C001583E038F02223
:10091200A3F8E0C5F025F0F0E58215827002158398
:06092200E0C838F0E822F5
:10092800BB010A89828A83E0F5F0A3E0225006879A
:10093800F009E71922BBFE07E3F5F009E31922895C
:0B094800828A83E493F5F0740193228F
:0D095300CFF4CFCEF4CECDF4CDCCF4CC2239
:10096000EB9FF5F0EA9E42F0E99D42F0E89C45F0ED
:010970002264
:10097100E8600FECC313FCED13FDEE13FEEF13FF64
:03098100D8F12288
:10098400E8600FEFC333FFEE33FEED33FDEC33FCD1
:03099400D8F12275
:10099700BB010DE58229F582E5833AF583020A69F1
:1009A7005007E92582F8020A5DBBFE07E92582F8B0
:1009B700020A75E58229F582E5833AF583020A8101
:1009C700BB010789828A83020AD35005E9F8020A24
:0A09D700C7BBFE05E9F8020ADF22A3
:1009E100BB010DE58229F582E5833AF583020AD33D
:1009F1005007E92582F8020AC7BBFE07E92582F8FC
:040A0100020ADF22E4
:100A0500BB010789828A83020A9E5005E9F8020A1A
:100A150091BBFE05E9F8020AAA89828A83020AB710
:0C0A2500A42582F582E5F03583F58322DC
:100A3100EF4E6012EF60010EEDBB010B89828A83DC
:100A4100F0A3DFFCDEFA2289F05007F709DFFCA9E9
:0C0A5100F022BBFEFCF309DFFCA9F02240
:0C0A5D00E6FC08E6FD08E6FE08E6FF22C5
:0C0A6900E0FCA3E0FDA3E0FEA3E0FF2200
:0C0A7500E2FC08E2FD08E2FE08E2FF22BD
:100A8100E493FC740193FD740293FE740393FF22BB
:0D0A9100E6FB08E6F908E6FA08E6CBF822D5
:0C0A9E00E0F8A3E0F9A3E0FAA3E0FB22DB
:0D0AAA00E2FB08E2F908E2FA08E2CBF822CC
:100AB700E493F8740193F9740293FA740393FB2295
:0C0AC700ECF608EDF608EEF608EFF6225B
:0C0AD300ECF0A3EDF0A3EEF0A3EFF02296
:0C0ADF00ECF208EDF208EEF208EFF22253
:00000001FF
