:030000000213C127
:1013C10078FFE4F6D8FD9000007F007E04E4F0A3EE
:0A13D100DFFCDEFA75814E021416EF
:101F0D0075D21375D36475D11275D6BFE4F5D4436C
:031F1D00A90222F4
:030043000217DFC2
:1017DF00C0E0C0D075D000C006C00753D2BF053FD0
:1017EF00E53FAE3E7002053E14D39541EE95404065
:1017FF0033753E00753F00AFD6EF700B754201F5A4
:10180F004375400175412CAFD6EF64BF700AF542A6
:10181F00754301F540754196E542600205D6E543F3
:0D182F00600215D6D007D006D0D0D0E03230
:101EC6007E007F067D007B007A00793E1206B853BD
:081ED600D27FE4F5D3F5D6221A
:101E94007E007F067D007B007A00793E1206B853EF
:091EA400D27FE4F5D375D6FF22CC
:071FC600121F0D43D280221F
:051CCC00EF640270222C
:101CD100F50AF50B758FC0759D50F50A750B4E858C
:101CE1000B9EE50AF59575A90143A101D2A0E4FE79
:021CF100FF22D0
:051CF3007EFF7FFF22CF
:1014ED008B128A138914EF64017027E5161516AC5B
:1014FD0015700215154C605CC299AB120514E514FC
:10150D00AA137002051314F91204F1F5992099DB51
:10151D0080FBEF6402703DE5217039D3E516940729
:10152D00E5159400502E7E007F0C7D007B007A0027
:10153D0079211206B8AE15AF1678267C007D00AB6A
:10154D0012AA13A9141204CB851522851623752111
:05155D000185269F221C
:101F2000E4F58E758911758A18758CFCC28CD2A95E
:031F3000D28C222E
:061EAD00044800000000E3
:0A1F8800E4F54BF54AF549F548224F
:101E6000AF4BAE4AAD49AC48EF2401F54BE43EF52B
:0A1E70004AE43DF549E43CF5482240
:091F9C00AF4BAE4AAD49AC48223E
:101E0D008F478E468D458C44121F9C12064EAF4750
:0C1E1D00AE46AD45AC44900004020668DF
:101C9C008B4C8A4D894E90000412061E12068CC382
:101CAC00E54B9BFBE54A9AFAE54999F9E54898F822
:101CBC00C31205E7E440047F018001FFFEFDFC2216
:031DD300E4FFFE2C
:101DD600EF1FAA0670011E4A600FE4FDEDD39400C2
:091DE6007480948040EA1D80F332
:011DEF0022D1
:091FA5001205AFFFAEF0021F5758
:101719008B118A1289131205AFFFAEF07B017A0093
:10172900E4FDFC121D24121DD3AB11AA12A9131238
:1017390005AFFFAEF07B017A007D017C00121D240C
:10174900121DD3AB11AA12A9131205AFFFAEF0E413
:10175900FBFAFDFC121D24E4FFFE121DD6AB11AAF3
:1017690012A9131205AFFFAEF0E4FBFA7D01FC12DA
:081779001D24E4FFFE021DD651
:060EEB00AB0AAA0BA90CE2
:080EF1008B118A1289138D1484
:100EF900E4F515C3E515940874809480506EE514E3
:100F0900AB11AA12A91330E70D1205AFFFAEF07BA2
:100F1900017A00E480091205AFFFAEF0E4FBFAFDA7
:100F2900FC121D24E51425E0F514E4FFFE121DD67C
:100F3900AB11AA12A9131205AFFFAEF07B017A001B
:100F49007D017C00121D24E4FFFE121DD6AB11AAFF
:100F590012A9131205AFFFAEF0E4FBFA7D01FC12F2
:100F69001D24E4FFFE121DD605158087AB11AA12B8
:100F7900A9131205AFFFAEF0E4FDFC121E7AAB1106
:100F8900AA12A9131205AFFFAEF07B017A007D0109
:100F99007C00121D24E4FFFE121DD6AB11AA12A972
:100FA900131205AFFFAEF0E4FDFC121E29EF4E60EF
:100FB90005E4F5168003751601AB11AA12A91312DF
:100FC90005AFFFAEF0E4FBFA7D01FC121D24E4FF3E
:100FD900FE121DD6AB11AA12A9131205AFFFAEF06E
:0B0FE9007D017C00121E7AAF167E0016
:010FF40022DA
:10183C008B118A1289131205AFFFAEF0E4FBFA7D0F
:10184C0001FC121D24E4FFFE121DD6AB11AA12A935
:10185C00131205AFFFAEF07B017A007D017C001204
:10186C001D24E4FFFE121DD6AB11AA12A9131205FA
:10187C00AFFFAEF07B017A00E4FDFC121D24E4FF07
:0B188C00FE121DD67FE87E03021DD671
:1015D3008B118A1289131205AFFFAEF07B017A00DB
:1015E300E4FDFC121D24E4FFFE121DD6AB11AA126A
:1015F300A9131205AFFFAEF07B017A007D017C00D9
:10160300121D24E4FFFE121DD6AB11AA12A9131258
:1016130005AFFFAEF0E4FBFA7D01FC121D24E4FFED
:10162300FE121DD6AB11AA12A9131205AFFFAEF01D
:0E163300E4FBFAFDFC121D24E4FFFE021DD6AE
:061281008B118A12891393
:10128700E4F5141205AFFFAEF0E4FDFC121E7AE49C
:10129700FFFE121DD6E4F515C3E515940874809476
:1012A700805061AB11AA12A9131205AFFFAEF07BF4
:1012B700017A007D017C00121D24E4FFFE121DD679
:1012C700AB11AA12A9131205AFFFAEF0E4FDFC1291
:1012D7001E29EF4E600FAF15A8077480088002C360
:1012E70013D8FC4214AB11AA12A9131205AFFFAE13
:1012F700F0E4FBFA7D01FC121D24E4FFFE121DD66B
:1013070005158094AB11AA12A9131205AFFFAEF011
:091317007D017C00121E7AAF1466
:0113200022AA
:101AEA008D0D8B0A8A0B890C121719AB0AAA0BA93E
:101AFA000CAD0D120EF1EF4EAB0AAA0BA90C700732
:101B0A0012183CE4FEFF22121281AB0EAA0FA91092
:101B1A00EF12050AAB0AAA0BA90C1215D3AB0AAA33
:0B1B2A000BA90C12183C7E007F01226A
:101B7F008D0D8B0A8A0B890C121719AD0D120EEBF6
:101B8F00EF4E7008AB0AAA0BA90C800FAD0E120E08
:101B9F00EBEF4EAB0AAA0BA90C700712183CE4FE30
:101BAF00FF221215D3AB0AAA0BA90C12183C7E0008
:031BBF007F012281
:0F1F5700EF4E70064391304390307E007F0122A1
:101E7A00EF4E7012ED4C70055391DF8009ED64014D
:0A1E8A004C7003439120E4FEFF2298
:101D2400EF4E7020ED4C700CEB4A6004D295801499
:101D3400C2958010ED64014C700AEB4A6004D294A1
:081D44008002C294E4FEFF22BC
:101E2900EF4E7014ED4C7004A2958008ED64014CDE
:0C1E39007006A294FE33FF22E4FEFF229C
:0800030012132112077280FBA9
:0A1EB3004300960000000236000014
:101DF000439A0243A1FC43D90353A23FD2A7D2D9AD
:0D1E0000D2D8D2A2D2A5D2A4D2A3D28122E0
:1016AE0090005FE064017010C2D9C2A7900062E0A2
:1016BE0054FEF0121EC6801790005FE06402702286
:1016CE00C2D9900062E054FEF0121EC6121E947B28
:1016DE00017A007992900094E0FD900062E0F50EA0
:1016EE008025121EC6900078E06003121FC6D2D964
:1016FE00D2A7900062E04401FFF07B017A0079925C
:0B170E00900094E0FD8F0E121B7F2264
:1009E30090005EE07003020A92900062E0A3F09030
:1009F3000078E0700690005EE0600B900062E054C7
:100A0300DFF0C2A38009900062E04420F0D2A390FB
:100A1300005FE0FD7C00700B900062E04401F0D2C7
:100A2300D98017ED64014C600890005FE0640270A8
:100A330009900062E054FEF0C2D9900079E06401AD
:100A4300700BC2A4900062E054EFF08009D2A4902E
:100A53000062E04410F090007AE06401700BC2D8A9
:100A6300900062E054FDF08009D2D8900062E04427
:100A730002F0C281900062E04440FFF07B017A0003
:100A83007992900094E0FD8F0E121B7F020B7690FB
:100A9300007DE0603DE4F090008404F0E490008A7F
:100AA300F0A3F0900062F0900078F0900062E044D0
:100AB300BFFFF07B017A007992900094E0FD8F0EE6
:100AC300121B7FD2D9D2D8D2A2D2A5D2A4D2A3D27A
:100AD3008122900063E0900062F090005FE0FD7C73
:100AE30000700B900062E04401F0D2D98017ED64EE
:100AF300014C600890005FE064027009900062E0BE
:100B030054FEF0C2D9900078E0700690005EE06079
:100B13000B900062E054DFF0C2A38009900062E012
:100B23004420F0D2A3900079E06401700BC2A4903A
:100B33000062E054EFF08009D2A4900062E0441018
:100B4300F090007AE06401700BC2D8900062E05428
:100B5300FDF08009D2D8900062E04402F07B017A74
:100B6300007992900094E0FD900063E0F50E121B73
:100B73007FD28190007C7401F0E490008AF0A3F0AE
:010B8300224F
:101EF60090005EE0701090007C04F090007BF0E4AF
:071F060090008AF0A3F02215
:101EDE0090005EE0701190007C04F090007B04F0A6
:081EEE00E490008AF0A3F02249
:1017810090005EE0705790007C04F0900078E0706B
:101791001A900062E054DFF0C2A39000787401F067
:1017A10090005FE0701C121FC68017900062E04439
:1017B10020F0D2A3E4900078F090005FE070031273
:1017C1001EC67B017A007992900094E0FD90006240
:0E17D100E0F50E121B7FE490008AF0A3F022D8
:1018970090005EE0705390007C04F0900079E06463
:1018A700019000626019E054EFF09000797401F044
:1018B700900080F0E490008EF0A3F0C2A4800FE0C7
:1018C7004410F0D2A4E4900079F0900080F07B01FE
:1018D7007A007992900094E0FD900062E0F50E1294
:0A18E7001B7FE490008AF0A3F022BA
:1018F10090005EE0705190007C04F090007AE090DE
:1019010000627019E054FDF090007A7401F09000CB
:1019110081F0E4900090F0A3F0C2D8800FE044027F
:10192100F0D2D8E490007AF0900081F07B017A0047
:101931007992900094E0FD900062E0F50E121B7F19
:08194100E490008AF0A3F022FB
:03003E000209E3D1
:031FCD00021EDE13
:031FD000021EF6F8
:1016410090005EE0706690007C04F0E53A7053759E
:101651003A01900097E004F024FE601D14603224EA
:1016610002702E90005FE0640260377402F0900017
:101671008214F0E4900086801390005FE0640160C2
:10168100217401F0900083F0E4900088F0A3F080D1
:1016910011E490005FF0900083F0900082F09000E0
:0D16A10097F01216AEE490008AF0A3F0223C
:031FD3000218975A
:041C3400AD07AC0646
:101C3800750A55750B01ECF50CEDF50DE50A250B4C
:101C4800250C250DF50E750F0D75100A7B007A0011
:101C5800790A7515007516077F021214EDE4FEFF68
:011C68002259
:1010E200900045E020E7030211C5547FF0120B8403
:1010F200900061EFF014607224FD605E24FC604A8F
:1011020024F8603324F0601B24E0706E900065E0E8
:10111200644070030211C27440F0753C01753D01D8
:101122000211C2900065E0642070030211C27420B3
:10113200F0121FD30211C2900065E0641070030226
:1011420011C27410F0121FCD8076900065E0640821
:10115200606E7408F0121FD08066900065E064042F
:10116200605E7404F01218F18056900065E064012C
:10117200604E7401F01216418046900065E06040B6
:10118200E4F0753C02F53DF538F539F53AD2A5D2D1
:10119200A2900062E04404F04408FFF07B017A0070
:1011A2007992900094E0FD8F0E121B7FE490005C18
:1011B200F090007BE06009A37401F0E490007BF002
:0411C200121FD922FD
:10194900C3900089E09410900088E0940E4048907C
:10195900005FE064017040F090007C04F0D2D9D2BD
:10196900A7753C02E4F53DF538F539F53A9000974D
:10197900F0900078E06005121FC68003121EC69021
:101989000062E04401FFF07B017A007992900094B3
:08199900E0FD8F0E121B7F22FE
:1019A100C3900087E09420900086E0941C4048900A
:1019B100005FE064027040F090007C04F0D2D9D264
:1019C100A7753C02E4F53DF538F539F53A900097F5
:1019D100F0900078E06005121FC68003121EC690C9
:1019E1000062E04401FFF07B017A0079929000945B
:0819F100E0FD8F0E121B7F22A6
:101BC200C3900091E09410900090E0940E402A900F
:101BD200007AE064017022F090007C04F0D2D8D246
:101BE200A7900062E04402FFF07B017A00799290B4
:0A1BF2000094E0FD8F0E121B7F220D
:101BFC00C390008FE0940890008EE09407402890EA
:101C0C000079E064017020F090007C04F0D2A49084
:101C1C000062E04410FFF07B017A0079929000940E
:081C2C00E0FD8F0E121B7F2268
:10132100121DF0121F0D121EC67F02121CCC121FBD
:1013310020121F88E4F508F509AE08E5097802C313
:1013410033CE33CED8F9FF2492F58274003EF58373
:10135100E508F0A3E509F04508701A74952FF582A8
:1013610074003EF583745BF074942FF58274003E33
:10137100F583745AF074922FF974003EFA7B0112CE
:101381001FA50509E50970020508C39401E5086474
:1013910080948040A4439280900062E044BFFFF0BB
:1013A1007B017A007992900094E0FD8F0E121B7FF1
:0F13B10012156290007C7401F0900084F0D2AFAE
:0113C000220A
:1007720075CF101210E2309703020863900095E0E3
:10078200FD750E01750F007510607B017A0079927C
:10079200121AEA900060E024FE602824FE603824E9
:1007A200FC604724F8605424F06060241F706C9051
:1007B2000064E0640870030208637408F0121FD03A
:1007C200020863900064E06402700302086374022A
:1007D200F01218F1020863900064E06404700302EE
:1007E20008637404F01216418077900064E064019B
:1007F200606F7401F0F53CF53D8066900064E06442
:1008020010605E7410F0121FD38056900064E06492
:1008120020604E7420F0121FCD8046900064E0608C
:1008220040E4F0753C02F53DF538F539F53AD2A5CC
:10083200D2A2900062E04404F04408FFF07B017A07
:10084200007992900094E0FD8F0E121B7FE49000DD
:100852005DF090007BE06009A37401F0E490007BFE
:10086200F0E53B1460121460482402704EE53C64CB
:10087200017048753B018043E53C6402700C12171D
:1008820081E4F53BF53CF538F539D3E53994DCE5FF
:100892003894054026753B02E4F538F53990005E40
:1008A200E0700404F08005E490005EF012003E80E7
:1008B2000AE53C64027004F53BF53C900085E0706B
:1008C2001F7B017A007992900094E0FD900062E033
:1008D200F50E121B7FE4900085F090008CF0A3F0DF
:0908E20090007CE070030209C0E3
:1008EB00E4F508F509F0900078E0FF7E00640170F4
:1008FB00085309FD430901800AEF4E70065309FEA8
:10090B0043090290007BE0FF7E0060046403700BE0
:10091B005309BF53097F4309208020EF64014E70B8
:10092B000B5308FE53097F430940800FEF64024EBF
:10093B0070095309BF5309BF43098090005FE0FF63
:10094B007E006401700B5309F75309FB43091080B8
:10095B001AEF64024E700B5309FB5309EF4309085E
:10096B0080095309EF5309F7430904900079E0FF1D
:10097B007E00640170085308DF430810800AEF4EB5
:10098B0070065308EF43082090007AE0FF7E006466
:10099B0001700853087F430840800AEF4E700653DE
:1009AB0008BF430880900076E508F0A3E509F0FF47
:0509BB00AE08121C341F
:1009C00090007FE06011E4F090007EF0900076E00F
:1009D000FEA3E0FF121C341219A1121BFC121BC251
:0309E000021949B0
:03003B00021B3570
:0D1B3500C0E0C0D075D000C000C006C007E1
:101B4200751D00E59D30E12A539DFDE52324FFFF2D
:101B5200E52234FFFEEFB5250BEEB5240775210013
:101B6200D2A0800E0525E525700205242426F8E67C
:021B7200F59FDD
:0B1B7400D007D006D000D0D0D0E03267
:03000B00020FF5EC
:100FF500C0E0C0F0C083C082C0D075D000C000C0C2
:0D10050001C002C003C004C005C006C00742
:10101200758A18758CFC121E60E53D60080539E57D
:1010220039700205380537E537AE367002053614D9
:10103200D394E8EE940350030210C7753600753757
:1010420000900083E0601E900088E475F0011205B4
:1010520099FED3E5F09410EE940E4009900083E4DB
:10106200F090005FF0900082E0601A900086E475D4
:10107200F001120599FED3E5F09420EE941C400590
:10108200900082E4F0900080E0601A90008EE47597
:10109200F001120599FED3E5F09408EE940740059D
:1010A200900080E4F0900081E0601A900090E47576
:1010B200F001120599FED3E5F09410EE940E40056E
:0510C200900081E4F044
:1010C700D007D006D005D004D003D002D001D0007D
:0B10D700D0D0D082D083D0F0D0E03227
:101A4C000000000000000005000A0BB800C800648C
:101A5C0000020000000000040000FFFFFFFFFFFF7A
:101A6C000014022604081105007C022604080E0549
:101A7C00006C022604080E05006A022604081005F4
:101A8C0000670226040812050070022604081305DC
:021A9C00005FE9
:041EBD0041005B0085
:0B1F7200901A56E493FE740193FF22C6
:0B1F7D00901A5AE493FE740193FF22B7
:081FAE00901A54740193FF2204
:031FD6007F012266
:101CF800AD07ED75F008A42474F582E4341AF58371
:101D0800E493FEED75F008A42475F582E4341AF521
:0C1D180083E4937C002400FFEC3EFE22DC
:101F3300EF75F008A42471F582E4341AF583E49371
:021F4300FF227B
:081FB600901A4E740193FF2202
:101F4500EF75F008A42472F582E4341AF583E4935E
:021F5500FF2269
:081FBE00900000E0C313FF22B4
:0A1F9200900000E075F00384FF22C8
:10004600121CF8EF7803C333CE33CED8F9FF7C0009
:050056007D0A02052EE9
:1019F900E4FBFAF50DF50CF50BF50A750D7DF50C03
:101A0900F50BF50AEBC39417748094805032AF0D2F
:101A1900AE0CAD0BAC0A78011205F88F0D8E0C8D4A
:101A29000B8C0A30D71774132AF582E43400F58336
:101A3900EBF00AEAC394067480948050030B80C4C7
:021A49008A35DC
:011A4B002278
:10000E00EF1460121460141460111460152404703F
:10001E0019901A6E8008901A6F8003901A70E493EC
:0D002E00FF22901A60740193FF227F0022D0
:101D9600901A52740193900000F0901A6C7401939B
:0F1DA600900048F01219F9E4900046F0A3F022E3
:100B8400E4F50AF50EF50DF50CF50BF512F511F576
:100B940010F50F121FDC5003020CA0121D718F0EF2
:100BA4008E0D8D0C8C0BE4FBEBC395355047AF0ECB
:100BB400AE0DAD0CAC0B78011205F88F0E8E0D8DB9
:100BC4000C8C0B30D72CE47F01FEFDFC74132BF549
:100BD40082E43400F583E0F9F812060BE5124FF5D0
:100BE40012E5114EF511E5104DF510E50F4CF50F1A
:100BF400050A0B80B3AF0A7E00C3EF94027480949D
:100C0400804018D200EF9403748094804005121F32
:100C1400DF8008121FB6EF6002C20020002CE4FF40
:100C2400FEFDFCAB12AA11A910A80FC31205E760C0
:100C340010900047E004F07006900046E004F08055
:100C440020E4900046F0A3F08017900044E004F004
:100C54007006900043E004F0E4F512F511F510F588
:100C64000F121F72D3900047E09F900046E09E4011
:100C74000A121FDFE4900046F0A3F0D3900044E092
:100C8400942C900043E09401401D121FDF90005B00
:100C94007401F0E4900043F0A3F0800B901A5CE43C
:0F0CA400740193FF120CB4AF12AE11AD10AC0F70
:010CB300221E
:041EC10041009F003D
:100DD30075F0029000491206ACE0FEA3E0FFE515B2
:100DE30075F0029000190206ACE51475F00290004C
:100DF300010206ACE51475F0029000310206AC74F2
:100E0300252518F582E43400F58322D3E5169FEEF9
:100E13006480F8E51564809822743D2514F582E416
:100E23003400F58322D3FFED9FEE6480F8EC6480F9
:100E3300982274552514F582E43400F58322E004E6
:100E4300F0740D2514F582E43400F58322E515755D
:100E5300F0029000490206ACFEC3E5179FEE6480E2
:100E6300F8E51664809822E5305534FFE52F5533B5
:100E7300FEE52E5532FDE52D5531FC22742B25144C
:100E8300F582E43400F58322E4F0FFFEFDFCAB3091
:100E9300AA2FA92EA82DC30205E77E0090009BE090
:100EA300FCA3E0FD12051C8EE78FE622E0FEA3E023
:100EB300FF75F00222A4FFE0C39FE5F06480F8749D
:100EC300809822900048E0FB3395E0FAEBAE0222D3
:100ED300E0FCA3E0FDEF22E0FCA3E0C39F2290002F
:080EE30048E0FF3395E0FE2218
:0C1F6600EF4E6007EF1F70F81E80F522A0
:03005B0002145B31
:10145B00C0E0C0F0C083C082C0D075D000C000C057
:0D146B0001C002C003C004C005C006C007D8
:10147800C2029000A0E0120DE3E5E5F0A3E5E4F078
:101488009000A0E004F0E0C39535400BE4F0900034
:1014980045E04480F08002D2029000A0E0FF121FD5
:1014A80033120E9D9000A0E0FF121F45E5E2548024
:1014B8004FF5E29000A0E02413F582E43400F583B0
:0A14C800E04480F5E8300202D2EEA5
:1014D200D007D006D005D004D003D002D001D0006E
:0B14E200D0D0D082D083D0F0D0E03218
:10156200D2AF75E880C201E49000A0F0900045F08F
:10157200121D96E4FF12000EEF2401FDE433FC7EFF
:101582000B7FB812052E90009BEEF0A3EFF0E4FF64
:10159200121F33120E9D7F0212000EEFC454F0FE92
:1015A200C006E4FF12000ED0E02FF5E17F03120027
:1015B2000EE5E254804FF5E27F0112000E8FE31236
:1015C2001A9E43A910900013E042E8121C69021E01
:0115D20045D3
:031FD900D2EE2223
:101D4C00E4FD900045E0547FF0D2EE900045E02099
:101D5C00E7127FE87E03121F6643CF100DEDC3948C
:041D6C003240E822F7
:011D70002250
:101C6900750A10121D4CAF0A150AEF70F6121DB550
:101C7900121FAE8F0A121D4CE4F50BE50BC3953507
:101C89005009AF0B1211C6050B80F0AF0A150AEF08
:021C990070E3F6
:011C9B002226
:101E4500E4FFEFC395355012EF120DE3120ED312D6
:0A1E55000DEEECF0A3EDF00F80E8B5
:011E5F002260
:101D7100E49000A1F0F513E513C39535500EAF13B0
:101D81001211C6AF1312005E051380EBAF30AE2FF8
:041D9100AD2EAC2D9A
:011D9500222B
:02005E008F14FD
:10006000E4F51C75F002EF120DF1120EAFE514125B
:100070000DE6120EDAF516EC9EF515E47F01FEFD95
:10008000FCA914A80112060B8F348E338D328C31EB
:10009000AF14121CF88E1A8F1BC3E516951BE51AB8
:1000A000120E1340057517018003E4F517E5176478
:1000B0000160030201E574252514120E06E0C394C5
:1000C000FA500A74252514120E06E004F0120E6A86
:1000D000E4FBFAF9F8C31205E760030201C89000D7
:1000E00000E0F519121FD6EF6028E4F517F518E5C2
:1000F00018C39535500F120E02E0C394014002055B
:1001000017051880EAE517C394034006740F2519F4
:10011000F51974252514120E06E0C3951950030233
:1001200001C8E4F517121FB6EF7051F518E518C3B2
:100130009535501AE51465186010121F92120E02C0
:10014000E0C39F40057517018004051880DF121F6A
:10015000D6EF7052E517704EF518E518C395355077
:1001600045E51465186011121F92742B2518120EA4
:1001700083E0C39F4002802B051880DE121FD6EF5C
:100180007024F519F518E518C39535500F120E02B5
:10019000E0C3940240020519051880EAE519C394EA
:1001A000034003751701E517B40102D200E530459D
:1001B00034FFE52F4533FEE52E4532FDE52D453173
:1001C0008F308E2F8D2EF52D120E1CE4F0120E3571
:1001D000E4F0120DF7E4F0A3F0740D2514F582E4B9
:1001E00034000203B8AF14120046120E0E4008127B
:1001F0000E7FE004F0800B9000A1E004F0120E7F6F
:10020000E4F0120EE1C3E49FFDE49EFCC3E5169DFD
:10021000EC120E134066120E0E5061120E1CE41208
:100220000E43120E8B6003020325120DF7E51585B0
:1002300016F0120583121F7D120DF7E0FCA3E0C338
:10024000120E2B4009120DECE475F0018021121FF3
:100250007DC3E49FFFE49EFE120DF7E0FCA3E0C324
:10026000120E2B4003020325120DEC74FFF5F01261
:100270000583120DF7E4F0A3F0020325900048E097
:10028000FFFD3395E0FCC3E49DFDE49CFCC3E51653
:100290009DEC120E135057120E1C120E41E4F01278
:1002A0000E1CE0FE75F00A84E5F07034EEC3946431
:1002B000400E120E1CE4F0D20190005B04F080208E
:1002C000120DECC083C082120ED3A2E713FF339548
:1002D000E0FEC3ED9FFFEC9ED082D083F0A3EFF051
:1002E00090009AE06514703D74FFF0020325120E31
:1002F000E1120E0E402F120E1C120E8B7027120EE2
:1003000044120E41E0B4201D120E44E4F090004867
:10031000E0A2E713A2E713FF3395E0FE120DECEE27
:100320008FF0120583120E6A4D4E4F70030203C404
:10033000E51BAE1A7802CEA2E713CE13D8F8FFC39E
:10034000E51B9FFFE51A9EFEC3120E0F506F120EA3
:1003500035E004F0121FBE8F19E4F518E518C395B7
:1003600035500F120E02E0C3940140020517051824
:1003700080EAE517C394034006900000E0F51912E7
:100380000E35E0C395194072120E35E4F0AF34AE6D
:1003900033AD32AC311205DAE5305FFFE52F5EFE9A
:1003A000E52E5DFDE52D5C8F308E2F8D2EF52D74A5
:1003B000252514F582E43400F583E4F022120E358D
:1003C000E014F02274252514120E06E4F0E535142D
:1003D000651470269000A1E0C39535401DE4F51822
:1003E000E518C39535500D120E02E0600375170134
:0A03F000051880ECE5177002C2004A
:0103FA0022E0
:101DB500E4FFEFC39535501575F002EF120DE612ED
:0D1DC5000ED3120E52ECF0A3EDF00F80E5EE
:011DD20022EE
:0211C6008F1583
:1011C800EF120DD3120EDAF517EC9EF516AF1512C5
:1011D8001CF8AD07AC06D3E5179DEC120E61500B59
:1011E800C3E49DFFE49C120E5B500B120DE1E0FE80
:1011F800A3E0FF02126EECA2E713FEED13FFD31279
:101208000E5D500BC3E49FFFE49E120E5B50271245
:101218000E50E0FCA3E0FDECC313FEED13FFC3ED9D
:101228009FFDEC9EFC120DE1E0C313FEA3E0132D1D
:10123800FFEC3EFE8030120E50E0FCA3E0FDAE0451
:101248007803CEC313CE13D8F9FFC3ED9FFDEC9EF0
:10125800FC120DE1E0FEA3E07803CEC313CE13D851
:10126800F92DFFEC3EFE120E50EEF0A3EFF0E5155F
:08127800120DD3EEF0A3EFF01C
:01128000224B
:031FDC00A201223D
:031FDF00D201220A
:101A9E00E4FFEFC39535502B74252F120E06E4F09C
:101AAE00743D2F120E20E4F074552F120E39E4F00F
:101ABE00EF120DF9E4F0A3F0742B2F120E83E4F065
:101ACE000F80CFE4F530F52FF52EF52D90009A749A
:0B1ADE00FFF0E490009DF0A3F0C201B7
:011AE90022DA
:020CB4008F139C
:100CB60090009FE0C394034035E4F090005BE07041
:100CC60022F514E514C39535501975F002E5141292
:100CD6000E55120EAFE514120DF1EEF0A3EFF0056E
:100CE6001480E0121A9EC201E490005BF02290008C
:100CF60099E004F0E0B51308121DB5E490009AF0EF
:100D0600900099E0D395135003020DD2E4F514E553
:100D160014C39535507A75F002E514120E55120E6D
:100D2600AFE514120DE6120EDAFFEC9EAD07FC904D
:100D3600005BE07029120EC67802C333CE33CED8DC
:100D4600F9120E284040E49BFFE49AFEEF7802C3B6
:100D560033CE33CED8F9C3120E29502A8032120E62
:100D6600C67803C333CE33CED8F9120E284017E423
:100D76009BFFE49AFEEF7803C333CE33CED8F9FF58
:100D8600C3120E2A400AAF141211C60514020D151D
:100D9600E514B5350690009AE004F0E51375F00801
:100DA600900099120EB84024E4F0C20090009FE033
:100DB60004F0E51375F00490009A120EB8400DE4A5
:0C0DC60090009FF0121E45121A9EC20100
:010DD20022FE
:1013DB00020003E493A3F8E493A34003F68001F225
:1013EB0008DFF48029E493A3F85407240CC8C33313
:1013FB00C4540F4420C8834004F456800146F6DFE2
:10140B00E4800B0102040810204080901EADE47EA6
:10141B00019360BCA3FF543F30E509541FFEE493D6
:10142B00A360010ECF54C025E060A840B8E493A39D
:10143B00FAE493A3F8E493A3C8C582C8CAC583CAC8
:10144B00F0A3C8C582C8CAC583CADFE9DEE780BE80
:011EC500001C
:1003FB00E709F608DFFA8046E709F208DFFA803EE4
:10040B0088828C83E709F0A3DFFA8032E309F608D0
:10041B00DFFA8078E309F208DFFA807088828C8338
:10042B00E309F0A3DFFA806489828A83E0A3F608EC
:10043B00DFFA805889828A83E0A3F208DFFA804CC6
:10044B0080D280FA80C680D4806980F2803380109D
:10045B0080A680EA809A80A880DA80E280CA803306
:10046B0089828A83ECFAE493A3C8C582C8CCC5837E
:10047B00CCF0A3C8C582C8CCC583CCDFE9DEE7804E
:10048B000D89828A83E493A3F608DFF9ECFAA9F0CD
:10049B00EDFB2289828A83ECFAE0A3C8C582C8CC23
:1004AB00C583CCF0A3C8C582C8CCC583CCDFEADE3C
:1004BB00E880DB89828A83E493A3F208DFF980CC9E
:1004CB0088F0EF60010E4E60C388F0ED2402B40497
:1004DB000050B9F582EB2402B4040050AF2323453E
:0604EB00822390044B7314
:1004F100BB010689828A83E0225002E722BBFE0209
:09050100E32289828A83E493223B
:10050A00BB010689828A83F0225002F722BBFE01D0
:02051A00F322CA
:10051C00EF8DF0A4A8F0CF8CF0A428CE8DF0A42EF3
:02052C00FE22AD
:10052E00BC000BBE0029EF8DF084FFADF022E4CCB1
:10053E00F875F008EF2FFFEE33FEEC33FCEE9DEC7A
:10054E00984005FCEE9DFE0FD5F0E9E4CEFD22EDC0
:10055E00F8F5F0EE8420D21CFEADF075F008EF2F0A
:10056E00FFED33FD4007985006D5F0F222C398FDFB
:05057E000FD5F0EA2298
:10058300C5F0F8A3E028F0C5F0F8E5821582700203
:060593001583E038F022A0
:10059900A3F8E0C5F025F0F0E58215827002158315
:0605A900E0C838F0E82272
:1005AF00BB010A89828A83E0F5F0A3E02250068717
:1005BF00F009E71922BBFE07E3F5F009E3192289D9
:0B05CF00828A83E493F5F0740193220C
:0D05DA00CFF4CFCEF4CECDF4CDCCF4CC22B6
:1005E700EB9FF5F0EA9E42F0E99D42F0E89C45F06A
:0105F70022E1
:1005F800E8600FECC313FCED13FDEE13FEEF13FFE1
:03060800D8F12204
:10060B00E8600FEFC333FFEE33FEED33FDEC33FC4D
:03061B00D8F122F1
:10061E00BB010DE58229F582E5833AF5830206F0EA
:10062E005007E92582F80206E4BBFE07E92582F8A9
:10063E000206FCE58229F582E5833AF58302070876
:10064E00BB010789828A8302075A5005E9F802071F
:0A065E004EBBFE05E9F80207662214
:10066800BB010DE58229F582E5833AF58302075A35
:100678005007E92582F802074EBBFE07E92582F8F4
:0406880002076622DD
:10068C00BB010789828A830207255005E9F8020716
:10069C0018BBFE05E9F802073189828A8302073EFE
:0C06AC00A42582F582E5F03583F5832259
:1006B800EF4E6012EF60010EEDBB010B89828A8359
:1006C800F0A3DFFCDEFA2289F05007F709DFFCA966
:0C06D800F022BBFEFCF309DFFCA9F022BD
:0C06E400E6FC08E6FD08E6FE08E6FF2242
:0C06F000E0FCA3E0FDA3E0FEA3E0FF227D
:0C06FC00E2FC08E2FD08E2FE08E2FF223A
:10070800E493FC740193FD740293FE740393FF2237
:0D071800E6FB08E6F908E6FA08E6CBF82251
:0C072500E0F8A3E0F9A3E0FAA3E0FB2257
:0D073100E2FB08E2F908E2FA08E2CBF82248
:10073E00E493F8740193F9740293FA740393FB2211
:0C074E00ECF608EDF608EEF608EFF622D7
:0C075A00ECF0A3EDF0A3EEF0A3EFF02212
:0C076600ECF208EDF208EEF208EFF222CF
:00000001FF
