:030000000213C028
:1013C00078FFE4F6D8FD9000007F007E04E4F0A3EF
:0A13D000DFFCDEFA75814E021415F1
:101F0C0075D21375D36475D11275D6BFE4F5D4436D
:031F1C00A90222F5
:030043000217DEC3
:1017DE00C0E0C0D075D000C006C00753D2BF053FD1
:1017EE00E53FAE3E7002053E14D39541EE95404066
:1017FE0033753E00753F00AFD6EF700B754201F5A5
:10180E004375400175412CAFD6EF64BF700AF542A7
:10181E00754301F540754196E542600205D6E543F4
:0D182E00600215D6D007D006D0D0D0E03231
:101EC5007E007F067D007B007A00793E1206B853BE
:081ED500D27FE4F5D3F5D6221B
:101E93007E007F067D007B007A00793E1206B853F0
:091EA300D27FE4F5D375D6FF22CD
:071FC500121F0C43D2802221
:051CCB00EF640270222D
:101CD000F50AF50B758FC0759D50F50A750B4E858D
:101CE0000B9EE50AF59575A90143A101D2A0E4FE7A
:021CF000FF22D1
:051CF2007EFF7FFF22D0
:1014EC008B128A138914EF64017027E5161516AC5C
:1014FC0015700215154C605CC299AB120514E514FD
:10150C00AA137002051314F91204F1F5992099DB52
:10151C0080FBEF6402703DE5217039D3E51694072A
:10152C00E5159400502E7E007F0C7D007B007A0028
:10153C0079211206B8AE15AF1678267C007D00AB6B
:10154C0012AA13A9141204CB851522851623752112
:05155C000185269F221D
:101F1F00E4F58E758911758A18758CFCC28CD2A95F
:031F2F00D28C222F
:061EAC00044800000000E4
:0A1F8700E4F54BF54AF549F5482250
:101E5F00AF4BAE4AAD49AC48EF2401F54BE43EF52C
:0A1E6F004AE43DF549E43CF5482241
:091F9B00AF4BAE4AAD49AC48223F
:101E0C008F478E468D458C44121F9B12064EAF4752
:0C1E1C00AE46AD45AC44900004020668E0
:101C9B008B4C8A4D894E90000412061E12068CC383
:101CAB00E54B9BFBE54A9AFAE54999F9E54898F823
:101CBB00C31205E7E440047F018001FFFEFDFC2217
:031DD200E4FFFE2D
:101DD500EF1FAA0670011E4A600FE4FDEDD39400C3
:091DE5007480948040EA1D80F333
:011DEE0022D2
:091FA4001205AFFFAEF0021F565A
:101718008B118A1289131205AFFFAEF07B017A0094
:10172800E4FDFC121D23121DD2AB11AA12A913123B
:1017380005AFFFAEF07B017A007D017C00121D230E
:10174800121DD2AB11AA12A9131205AFFFAEF0E415
:10175800FBFAFDFC121D23E4FFFE121DD5AB11AAF6
:1017680012A9131205AFFFAEF0E4FBFA7D01FC12DB
:081778001D23E4FFFE021DD554
:060EEA00AB0AAA0BA90CE3
:080EF0008B118A1289138D1485
:100EF800E4F515C3E515940874809480506EE514E4
:100F0800AB11AA12A91330E70D1205AFFFAEF07BA3
:100F1800017A00E480091205AFFFAEF0E4FBFAFDA8
:100F2800FC121D23E51425E0F514E4FFFE121DD57F
:100F3800AB11AA12A9131205AFFFAEF07B017A001C
:100F48007D017C00121D23E4FFFE121DD5AB11AA02
:100F580012A9131205AFFFAEF0E4FBFA7D01FC12F3
:100F68001D23E4FFFE121DD505158087AB11AA12BB
:100F7800A9131205AFFFAEF0E4FDFC121E79AB1108
:100F8800AA12A9131205AFFFAEF07B017A007D010A
:100F98007C00121D23E4FFFE121DD5AB11AA12A975
:100FA800131205AFFFAEF0E4FDFC121E28EF4E60F1
:100FB80005E4F5168003751601AB11AA12A91312E0
:100FC80005AFFFAEF0E4FBFA7D01FC121D23E4FF40
:100FD800FE121DD5AB11AA12A9131205AFFFAEF070
:0B0FE8007D017C00121E79AF167E0018
:010FF30022DB
:10183B008B118A1289131205AFFFAEF0E4FBFA7D10
:10184B0001FC121D23E4FFFE121DD5AB11AA12A938
:10185B00131205AFFFAEF07B017A007D017C001205
:10186B001D23E4FFFE121DD5AB11AA12A9131205FD
:10187B00AFFFAEF07B017A00E4FDFC121D23E4FF09
:0B188B00FE121DD57FE87E03021DD574
:1015D2008B118A1289131205AFFFAEF07B017A00DC
:1015E200E4FDFC121D23E4FFFE121DD5AB11AA126D
:1015F200A9131205AFFFAEF07B017A007D017C00DA
:10160200121D23E4FFFE121DD5AB11AA12A913125B
:1016120005AFFFAEF0E4FBFA7D01FC121D23E4FFEF
:10162200FE121DD5AB11AA12A9131205AFFFAEF01F
:0E163200E4FBFAFDFC121D23E4FFFE021DD5B1
:061280008B118A12891394
:10128600E4F5141205AFFFAEF0E4FDFC121E79E49E
:10129600FFFE121DD5E4F515C3E515940874809478
:1012A600805061AB11AA12A9131205AFFFAEF07BF5
:1012B600017A007D017C00121D23E4FFFE121DD57C
:1012C600AB11AA12A9131205AFFFAEF0E4FDFC1292
:1012D6001E28EF4E600FAF15A8077480088002C362
:1012E60013D8FC4214AB11AA12A9131205AFFFAE14
:1012F600F0E4FBFA7D01FC121D23E4FFFE121DD56E
:1013060005158094AB11AA12A9131205AFFFAEF012
:091316007D017C00121E79AF1468
:01131F0022AB
:101AE9008D0D8B0A8A0B890C121718AB0AAA0BA940
:101AF9000CAD0D120EF0EF4EAB0AAA0BA90C700734
:101B090012183BE4FEFF22121280AB0EAA0FA91095
:101B1900EF12050AAB0AAA0BA90C1215D2AB0AAA35
:0B1B29000BA90C12183B7E007F01226C
:101B7E008D0D8B0A8A0B890C121718AD0D120EEAF9
:101B8E00EF4E7008AB0AAA0BA90C800FAD0E120E09
:101B9E00EAEF4EAB0AAA0BA90C700712183BE4FE33
:101BAE00FF221215D2AB0AAA0BA90C12183B7E000B
:031BBE007F012282
:0F1F5600EF4E70064391304390307E007F0122A2
:101E7900EF4E7012ED4C70055391DF8009ED64014E
:0A1E89004C7003439120E4FEFF2299
:101D2300EF4E7020ED4C700CEB4A6004D29580149A
:101D3300C2958010ED64014C700AEB4A6004D294A2
:081D43008002C294E4FEFF22BD
:101E2800EF4E7014ED4C7004A2958008ED64014CDF
:0C1E38007006A294FE33FF22E4FEFF229D
:0800030012132012077280FBAA
:0A1EB2004300960000000236000015
:101DEF00439A0243A1FC43D90353A23FD2A7D2D9AE
:0D1DFF00D2D8D2A2D2A5D2A4D2A3D28122E2
:1016AD0090005FE064017010C2D9C2A7900062E0A3
:1016BD0054FEF0121EC5801790005FE06402702288
:1016CD00C2D9900062E054FEF0121EC5121E937B2B
:1016DD00017A007992900094E0FD900062E0F50EA1
:1016ED008025121EC5900078E06003121FC5D2D967
:1016FD00D2A7900062E04401FFF07B017A0079925D
:0B170D00900094E0FD8F0E121B7E2266
:1009E20090005EE07003020A91900062E0A3F09032
:1009F2000078E0700690005EE0600B900062E054C8
:100A0200DFF0C2A38009900062E04420F0D2A390FC
:100A1200005FE0FD7C00700B900062E04401F0D2C8
:100A2200D98017ED64014C600890005FE0640270A9
:100A320009900062E054FEF0C2D9900079E06401AE
:100A4200700BC2A4900062E054EFF08009D2A4902F
:100A52000062E04410F090007AE06401700BC2D8AA
:100A6200900062E054FDF08009D2D8900062E04428
:100A720002F0C281900062E04440FFF07B017A0004
:100A82007992900094E0FD8F0E121B7E020B7590FE
:100A9200007DE0603DE4F090008404F0E490008A80
:100AA200F0A3F0900062F0900078F0900062E044D1
:100AB200BFFFF07B017A007992900094E0FD8F0EE7
:100AC200121B7ED2D9D2D8D2A2D2A5D2A4D2A3D27C
:100AD2008122900063E0900062F090005FE0FD7C74
:100AE20000700B900062E04401F0D2D98017ED64EF
:100AF200014C600890005FE064027009900062E0BF
:100B020054FEF0C2D9900078E0700690005EE0607A
:100B12000B900062E054DFF0C2A38009900062E013
:100B22004420F0D2A3900079E06401700BC2A4903B
:100B32000062E054EFF08009D2A4900062E0441019
:100B4200F090007AE06401700BC2D8900062E05429
:100B5200FDF08009D2D8900062E04402F07B017A75
:100B6200007992900094E0FD900063E0F50E121B74
:100B72007ED28190007C7401F0E490008AF0A3F0B0
:010B82002250
:101EF50090005EE0701090007C04F090007BF0E4B0
:071F050090008AF0A3F02216
:101EDD0090005EE0701190007C04F090007B04F0A7
:081EED00E490008AF0A3F0224A
:1017800090005EE0705790007C04F0900078E0706C
:101790001A900062E054DFF0C2A39000787401F068
:1017A00090005FE0701C121FC58017900062E0443B
:1017B00020F0D2A3E4900078F090005FE070031274
:1017C0001EC57B017A007992900094E0FD90006242
:0E17D000E0F50E121B7EE490008AF0A3F022DA
:1018960090005EE0705390007C04F0900079E06464
:1018A600019000626019E054EFF09000797401F045
:1018B600900080F0E490008EF0A3F0C2A4800FE0C8
:1018C6004410F0D2A4E4900079F0900080F07B01FF
:1018D6007A007992900094E0FD900062E0F50E1295
:0A18E6001B7EE490008AF0A3F022BC
:1018F00090005EE0705190007C04F090007AE090DF
:1019000000627019E054FDF090007A7401F09000CC
:1019100081F0E4900090F0A3F0C2D8800FE0440280
:10192000F0D2D8E490007AF0900081F07B017A0048
:101930007992900094E0FD900062E0F50E121B7E1B
:08194000E490008AF0A3F022FC
:03003E000209E2D2
:031FCC00021EDD15
:031FCF00021EF5FA
:1016400090005EE0706690007C04F0E53A7053759F
:101650003A01900097E004F024FE601D14603224EB
:1016600002702E90005FE0640260377402F0900018
:101670008214F0E4900086801390005FE0640160C3
:10168000217401F0900083F0E4900088F0A3F080D2
:1016900011E490005FF0900083F0900082F09000E1
:0D16A00097F01216ADE490008AF0A3F0223E
:031FD2000218965C
:041C3300AD07AC0647
:101C3700750A55750B01ECF50CEDF50DE50A250B4D
:101C4700250C250DF50E750F0D75100A7B007A0012
:101C5700790A7515007516077F021214ECE4FEFF6A
:011C6700225A
:1010E100900045E020E7030211C4547FF0120B8306
:1010F100900061EFF014607224FD605E24FC604A90
:1011010024F8603324F0601B24E0706E900065E0E9
:10111100644070030211C17440F0753C01753D01DA
:101121000211C1900065E0642070030211C17420B6
:10113100F0121FD20211C1900065E0641070030229
:1011410011C17410F0121FCC8076900065E0640824
:10115100606E7408F0121FCF8066900065E0640431
:10116100605E7404F01218F08056900065E064012E
:10117100604E7401F01216408046900065E06040B8
:10118100E4F0753C02F53DF538F539F53AD2A5D2D2
:10119100A2900062E04404F04408FFF07B017A0071
:1011A1007992900094E0FD8F0E121B7EE490005C1A
:1011B100F090007BE06009A37401F0E490007BF003
:0411C100121FD822FF
:10194800C3900089E09410900088E0940E4048907D
:10195800005FE064017040F090007C04F0D2D9D2BE
:10196800A7753C02E4F53DF538F539F53A9000974E
:10197800F0900078E06005121FC58003121EC59024
:101988000062E04401FFF07B017A007992900094B4
:08199800E0FD8F0E121B7E2200
:1019A000C3900087E09420900086E0941C4048900B
:1019B000005FE064027040F090007C04F0D2D9D265
:1019C000A7753C02E4F53DF538F539F53A900097F6
:1019D000F0900078E06005121FC58003121EC590CC
:1019E0000062E04401FFF07B017A0079929000945C
:0819F000E0FD8F0E121B7E22A8
:101BC100C3900091E09410900090E0940E402A9010
:101BD100007AE064017022F090007C04F0D2D8D247
:101BE100A7900062E04402FFF07B017A00799290B5
:0A1BF1000094E0FD8F0E121B7E220F
:101BFB00C390008FE0940890008EE09407402890EB
:101C0B000079E064017020F090007C04F0D2A49085
:101C1B000062E04410FFF07B017A0079929000940F
:081C2B00E0FD8F0E121B7E226A
:10132000121DEF121F0C121EC57F02121CCB121FC2
:101330001F121F87E4F508F509AE08E5097802C316
:1013400033CE33CED8F9FF2492F58274003EF58374
:10135000E508F0A3E509F04508701A74952FF582A9
:1013600074003EF583745BF074942FF58274003E34
:10137000F583745AF074922FF974003EFA7B0112CF
:101380001FA40509E50970020508C39401E5086476
:1013900080948040A4439280900062E044BFFFF0BC
:1013A0007B017A007992900094E0FD8F0E121B7EF3
:0F13B00012156190007C7401F0900084F0D2AFB0
:0113BF00220B
:1007720075CF101210E1309703020863900095E0E4
:10078200FD750E01750F007510607B017A0079927C
:10079200121AE9900060E024FE602824FE603824EA
:1007A200FC604724F8605424F06060241F706C9051
:1007B2000064E0640870030208637408F0121FCF3B
:1007C200020863900064E06402700302086374022A
:1007D200F01218F0020863900064E06404700302EF
:1007E20008637404F01216408077900064E064019C
:1007F200606F7401F0F53CF53D8066900064E06442
:1008020010605E7410F0121FD28056900064E06493
:1008120020604E7420F0121FCC8046900064E0608D
:1008220040E4F0753C02F53DF538F539F53AD2A5CC
:10083200D2A2900062E04404F04408FFF07B017A07
:10084200007992900094E0FD8F0E121B7EE49000DE
:100852005DF090007BE06009A37401F0E490007BFE
:10086200F0E53B1460121460482402704EE53C64CB
:10087200017048753B018043E53C6402700C12171D
:1008820080E4F53BF53CF538F539D3E53994DCE500
:100892003894054026753B02E4F538F53990005E40
:1008A200E0700404F08005E490005EF012003E80E7
:1008B2000AE53C64027004F53BF53C900085E0706B
:1008C2001F7B017A007992900094E0FD900062E033
:1008D200F50E121B7EE4900085F090008CF0A3F0E0
:0908E20090007CE070030209BFE4
:1008EB00E4F508F509F0900078E0FF7E00640170F4
:1008FB00085309FD430901800AEF4E70065309FEA8
:10090B0043090290007BE0FF7E0060046403700BE0
:10091B005309BF53097F4309208020EF64014E70B8
:10092B000B5308FE53097F430940800FEF64024EBF
:10093B0070095309BF5309BF43098090005FE0FF63
:10094B007E006401700B5309F75309FB43091080B8
:10095B001AEF64024E700B5309FB5309EF4309085E
:10096B0080095309EF5309F7430904900079E0FF1D
:10097B007E00640170085308DF430810800AEF4EB5
:10098B0070065308EF43082090007AE0640170086A
:10099B0053087F430840800C900079E070065308A1
:1009AB00BF430880900076E508F0A3E509F0FFAEA1
:0409BB0008121C33CF
:1009BF0090007FE06011E4F090007EF0900076E010
:1009CF00FEA3E0FF121C331219A0121BFB121BC156
:0309DF00021948B2
:03003B00021B3471
:0D1B3400C0E0C0D075D000C000C006C007E2
:101B4100751D00E59D30E12A539DFDE52324FFFF2E
:101B5100E52234FFFEEFB5250BEEB5240775210014
:101B6100D2A0800E0525E525700205242426F8E67D
:021B7100F59FDE
:0B1B7300D007D006D000D0D0D0E03268
:03000B00020FF4ED
:100FF400C0E0C0F0C083C082C0D075D000C000C0C3
:0D10040001C002C003C004C005C006C00743
:10101100758A18758CFC121E5FE53D60080539E57F
:1010210039700205380537E537AE367002053614DA
:10103100D394E8EE940350030210C6753600753759
:1010410000900083E0601E900088E475F0011205B5
:1010510099FED3E5F09410EE940E4009900083E4DC
:10106100F090005FF0900082E0601A900086E475D5
:10107100F001120599FED3E5F09420EE941C400591
:10108100900082E4F0900080E0601A90008EE47598
:10109100F001120599FED3E5F09408EE940740059E
:1010A100900080E4F0900081E0601A900090E47577
:1010B100F001120599FED3E5F09410EE940E40056F
:0510C100900081E4F045
:1010C600D007D006D005D004D003D002D001D0007E
:0B10D600D0D0D082D083D0F0D0E03228
:101A4B000000000000000005000A0BB800C800648D
:101A5B0000020000000000040000FFFFFFFFFFFF7B
:101A6B000014022604081105007C022604080E054A
:101A7B00006C022604080E05006A022604081005F5
:101A8B0000670226040812050070022604081305DD
:021A9B00005FEA
:041EBC0041005B0086
:0B1F7100901A55E493FE740193FF22C8
:0B1F7C00901A59E493FE740193FF22B9
:081FAD00901A53740193FF2206
:031FD5007F012267
:101CF700AD07ED75F008A42473F582E4341AF58373
:101D0700E493FEED75F008A42474F582E4341AF523
:0C1D170083E4937C002400FFEC3EFE22DD
:101F3200EF75F008A42470F582E4341AF583E49373
:021F4200FF227C
:081FB500901A4D740193FF2204
:101F4400EF75F008A42471F582E4341AF583E49360
:021F5400FF226A
:081FBD00900000E0C313FF22B5
:0A1F9100900000E075F00384FF22C9
:10004600121CF7EF7803C333CE33CED8F9FF7C000A
:050056007D0A02052EE9
:1019F800E4FBFAF50DF50CF50BF50A750D7DF50C04
:101A0800F50BF50AEBC39417748094805032AF0D30
:101A1800AE0CAD0BAC0A78011205F88F0D8E0C8D4B
:101A28000B8C0A30D71774132AF582E43400F58337
:101A3800EBF00AEAC394067480948050030B80C4C8
:021A48008A35DD
:011A4A002279
:10000E00EF1460121460141460111460152404703F
:10001E0019901A6D8008901A6E8003901A6FE493EF
:0D002E00FF22901A5F740193FF227F0022D1
:101D9500901A51740193900000F0901A6B7401939E
:0F1DA500900048F01219F8E4900046F0A3F022E5
:100B8300E4F50AF50EF50DF50CF50BF512F511F577
:100B930010F50F121FDB5003020C9F121D708F0EF6
:100BA3008E0D8D0C8C0BE4FBEBC395355047AF0ECC
:100BB300AE0DAD0CAC0B78011205F88F0E8E0D8DBA
:100BC3000C8C0B30D72CE47F01FEFDFC74132BF54A
:100BD30082E43400F583E0F9F812060BE5124FF5D1
:100BE30012E5114EF511E5104DF510E50F4CF50F1B
:100BF300050A0B80B3AF0A7E00C3EF94027480949E
:100C0300804018D200EF9403748094804005121F33
:100C1300DE8008121FB5EF6002C20020002CE4FF43
:100C2300FEFDFCAB12AA11A910A80FC31205E760C1
:100C330010900047E004F07006900046E004F08056
:100C430020E4900046F0A3F08017900044E004F005
:100C53007006900043E004F0E4F512F511F510F589
:100C63000F121F71D3900047E09F900046E09E4013
:100C73000A121FDEE4900046F0A3F0D3900044E094
:100C8300942C900043E09401401D121FDE90005B02
:100C93007401F0E4900043F0A3F0800B901A5BE43E
:0F0CA300740193FF120CB3AF12AE11AD10AC0F72
:010CB200221F
:041EC00041009F003E
:100DD20075F0029000491206ACE0FEA3E0FFE515B3
:100DE20075F0029000190206ACE51475F00290004D
:100DF200010206ACE51475F0029000310206AC74F3
:100E0200252518F582E43400F58322D3E5169FEEFA
:100E12006480F8E51564809822743D2514F582E417
:100E22003400F58322D3FFED9FEE6480F8EC6480FA
:100E3200982274552514F582E43400F58322E004E7
:100E4200F0740D2514F582E43400F58322E515755E
:100E5200F0029000490206ACFEC3E5179FEE6480E3
:100E6200F8E51664809822E5305534FFE52F5533B6
:100E7200FEE52E5532FDE52D5531FC22742B25144D
:100E8200F582E43400F58322E4F0FFFEFDFCAB3092
:100E9200AA2FA92EA82DC30205E77E0090009BE091
:100EA200FCA3E0FD12051C8EE78FE622E0FEA3E024
:100EB200FF75F00222A4FFE0C39FE5F06480F8749E
:100EC200809822900048E0FB3395E0FAEBAE0222D4
:100ED200E0FCA3E0FDEF22E0FCA3E0C39F22900030
:080EE20048E0FF3395E0FE2219
:0C1F6500EF4E6007EF1F70F81E80F522A1
:03005B0002145A32
:10145A00C0E0C0F0C083C082C0D075D000C000C058
:0D146A0001C002C003C004C005C006C007D9
:10147700C2029000A0E0120DE2E5E5F0A3E5E4F07A
:101487009000A0E004F0E0C39535400BE4F0900035
:1014970045E04480F08002D2029000A0E0FF121FD6
:1014A70032120E9C9000A0E0FF121F44E5E2548028
:1014B7004FF5E29000A0E02413F582E43400F583B1
:0A14C700E04480F5E8300202D2EEA6
:1014D100D007D006D005D004D003D002D001D0006F
:0B14E100D0D0D082D083D0F0D0E03219
:10156100D2AF75E880C201E49000A0F0900045F090
:10157100121D95E4FF12000EEF2401FDE433FC7E01
:101581000B7FB812052E90009BEEF0A3EFF0E4FF65
:10159100121F32120E9C7F0212000EEFC454F0FE95
:1015A100C006E4FF12000ED0E02FF5E17F03120028
:1015B1000EE5E254804FF5E27F0112000E8FE31237
:1015C1001A9D43A910900013E042E8121C68021E04
:0115D10044D5
:031FD800D2EE2224
:101D4B00E4FD900045E0547FF0D2EE900045E0209A
:101D5B00E7127FE87E03121F6543CF100DEDC3948E
:041D6B003240E822F8
:011D6F002251
:101C6800750A10121D4BAF0A150AEF70F6121DB453
:101C7800121FAD8F0A121D4BE4F50BE50BC395350A
:101C88005009AF0B1211C5050B80F0AF0A150AEF0A
:021C980070E3F7
:011C9A002227
:101E4400E4FFEFC395355012EF120DE2120ED212D9
:0A1E54000DEDECF0A3EDF00F80E8B7
:011E5E002261
:101D7000E49000A1F0F513E513C39535500EAF13B1
:101D80001211C5AF1312005E051380EBAF30AE2FFA
:041D9000AD2EAC2D9B
:011D9400222C
:02005E008F14FD
:10006000E4F51C75F002EF120DF0120EAEE514125D
:100070000DE5120ED9F516EC9EF515E47F01FEFD97
:10008000FCA914A80112060B8F348E338D328C31EB
:10009000AF14121CF78E1A8F1BC3E516951BE51AB9
:1000A000120E1240057517018003E4F517E5176479
:1000B0000160030201E574252514120E05E0C394C6
:1000C000FA500A74252514120E05E004F0120E6988
:1000D000E4FBFAF9F8C31205E760030201C89000D7
:1000E00000E0F519121FD5EF6028E4F517F518E5C3
:1000F00018C39535500F120E01E0C394014002055C
:1001000017051880EAE517C394034006740F2519F4
:10011000F51974252514120E05E0C3951950030234
:1001200001C8E4F517121FB5EF7051F518E518C3B3
:100130009535501AE51465186010121F91120E01C2
:10014000E0C39F40057517018004051880DF121F6A
:10015000D5EF7052E517704EF518E518C395355078
:1001600045E51465186011121F91742B2518120EA5
:1001700082E0C39F4002802B051880DE121FD5EF5E
:100180007024F519F518E518C39535500F120E01B6
:10019000E0C3940240020519051880EAE519C394EA
:1001A000034003751701E517B40102D200E530459D
:1001B00034FFE52F4533FEE52E4532FDE52D453173
:1001C0008F308E2F8D2EF52D120E1BE4F0120E3473
:1001D000E4F0120DF6E4F0A3F0740D2514F582E4BA
:1001E00034000203B8AF14120046120E0D4008127C
:1001F0000E7EE004F0800B9000A1E004F0120E7E71
:10020000E4F0120EE0C3E49FFDE49EFCC3E5169DFE
:10021000EC120E124066120E0D5061120E1BE4120B
:100220000E42120E8A6003020325120DF6E51585B3
:1002300016F0120583121F7C120DF6E0FCA3E0C33A
:10024000120E2A4009120DEBE475F0018021121FF5
:100250007CC3E49FFFE49EFE120DF6E0FCA3E0C326
:10026000120E2A4003020325120DEB74FFF5F01263
:100270000583120DF6E4F0A3F0020325900048E098
:10028000FFFD3395E0FCC3E49DFDE49CFCC3E51653
:100290009DEC120E125057120E1B120E40E4F0127B
:1002A0000E1BE0FE75F00A84E5F07034EEC3946432
:1002B000400E120E1BE4F0D20190005B04F080208F
:1002C000120DEBC083C082120ED2A2E713FF33954A
:1002D000E0FEC3ED9FFFEC9ED082D083F0A3EFF051
:1002E00090009AE06514703D74FFF0020325120E31
:1002F000E0120E0D402F120E1B120E8A7027120EE6
:1003000043120E40E0B4201D120E43E4F09000486A
:10031000E0A2E713A2E713FF3395E0FE120DEBEE28
:100320008FF0120583120E694D4E4F70030203C405
:10033000E51BAE1A7802CEA2E713CE13D8F8FFC39E
:10034000E51B9FFFE51A9EFEC3120E0E506F120EA4
:1003500034E004F0121FBD8F19E4F518E518C395B9
:1003600035500F120E01E0C3940140020517051825
:1003700080EAE517C394034006900000E0F51912E7
:100380000E34E0C395194072120E34E4F0AF34AE6F
:1003900033AD32AC311205DAE5305FFFE52F5EFE9A
:1003A000E52E5DFDE52D5C8F308E2F8D2EF52D74A5
:1003B000252514F582E43400F583E4F022120E348E
:1003C000E014F02274252514120E05E4F0E535142E
:1003D000651470269000A1E0C39535401DE4F51822
:1003E000E518C39535500D120E01E0600375170135
:0A03F000051880ECE5177002C2004A
:0103FA0022E0
:101DB400E4FFEFC39535501575F002EF120DE512EF
:0D1DC4000ED2120E51ECF0A3EDF00F80E5F1
:011DD10022EF
:0211C5008F1584
:1011C700EF120DD2120ED9F517EC9EF516AF1512C8
:1011D7001CF7AD07AC06D3E5179DEC120E60500B5C
:1011E700C3E49DFFE49C120E5A500B120DE0E0FE83
:1011F700A3E0FF02126DECA2E713FEED13FFD3127B
:101207000E5C500BC3E49FFFE49E120E5A50271248
:101217000E4FE0FCA3E0FDECC313FEED13FFC3ED9F
:101227009FFDEC9EFC120DE0E0C313FEA3E0132D1F
:10123700FFEC3EFE8030120E4FE0FCA3E0FDAE0453
:101247007803CEC313CE13D8F9FFC3ED9FFDEC9EF1
:10125700FC120DE0E0FEA3E07803CEC313CE13D853
:10126700F92DFFEC3EFE120E4FEEF0A3EFF0E51561
:08127700120DD2EEF0A3EFF01E
:01127F00224C
:031FDB00A201223E
:031FDE00D201220B
:101A9D00E4FFEFC39535502B74252F120E05E4F09E
:101AAD00743D2F120E1FE4F074552F120E38E4F012
:101ABD00EF120DF8E4F0A3F0742B2F120E82E4F068
:101ACD000F80CFE4F530F52FF52EF52D90009A749B
:0B1ADD00FFF0E490009DF0A3F0C201B8
:011AE80022DB
:020CB3008F139D
:100CB50090009FE0C394034035E4F090005BE07042
:100CC50022F514E514C39535501975F002E5141293
:100CD5000E54120EAEE514120DF0EEF0A3EFF00572
:100CE5001480E0121A9DC201E490005BF02290008E
:100CF50099E004F0E0B51308121DB4E490009AF0F1
:100D0500900099E0D395135003020DD1E4F514E555
:100D150014C39535507A75F002E514120E54120E6F
:100D2500AEE514120DE5120ED9FFEC9EAD07FC9051
:100D3500005BE07029120EC57802C333CE33CED8DE
:100D4500F9120E274040E49BFFE49AFEEF7802C3B8
:100D550033CE33CED8F9C3120E28502A8032120E64
:100D6500C57803C333CE33CED8F9120E274017E426
:100D75009BFFE49AFEEF7803C333CE33CED8F9FF59
:100D8500C3120E29400AAF141211C50514020D1421
:100D9500E514B5350690009AE004F0E51375F00802
:100DA500900099120EB74024E4F0C20090009FE035
:100DB50004F0E51375F00490009A120EB7400DE4A7
:0C0DC50090009FF0121E44121A9DC20103
:010DD10022FF
:1013DA00020003E493A3F8E493A34003F68001F226
:1013EA0008DFF48029E493A3F85407240CC8C33314
:1013FA00C4540F4420C8834004F456800146F6DFE3
:10140A00E4800B0102040810204080901EACE47EA8
:10141A00019360BCA3FF543F30E509541FFEE493D7
:10142A00A360010ECF54C025E060A840B8E493A39E
:10143A00FAE493A3F8E493A3C8C582C8CAC583CAC9
:10144A00F0A3C8C582C8CAC583CADFE9DEE780BE81
:011EC400001D
:1003FB00E709F608DFFA8046E709F208DFFA803EE4
:10040B0088828C83E709F0A3DFFA8032E309F608D0
:10041B00DFFA8078E309F208DFFA807088828C8338
:10042B00E309F0A3DFFA806489828A83E0A3F608EC
:10043B00DFFA805889828A83E0A3F208DFFA804CC6
:10044B0080D280FA80C680D4806980F2803380109D
:10045B0080A680EA809A80A880DA80E280CA803306
:10046B0089828A83ECFAE493A3C8C582C8CCC5837E
:10047B00CCF0A3C8C582C8CCC583CCDFE9DEE7804E
:10048B000D89828A83E493A3F608DFF9ECFAA9F0CD
:10049B00EDFB2289828A83ECFAE0A3C8C582C8CC23
:1004AB00C583CCF0A3C8C582C8CCC583CCDFEADE3C
:1004BB00E880DB89828A83E493A3F208DFF980CC9E
:1004CB0088F0EF60010E4E60C388F0ED2402B40497
:1004DB000050B9F582EB2402B4040050AF2323453E
:0604EB00822390044B7314
:1004F100BB010689828A83E0225002E722BBFE0209
:09050100E32289828A83E493223B
:10050A00BB010689828A83F0225002F722BBFE01D0
:02051A00F322CA
:10051C00EF8DF0A4A8F0CF8CF0A428CE8DF0A42EF3
:02052C00FE22AD
:10052E00BC000BBE0029EF8DF084FFADF022E4CCB1
:10053E00F875F008EF2FFFEE33FEEC33FCEE9DEC7A
:10054E00984005FCEE9DFE0FD5F0E9E4CEFD22EDC0
:10055E00F8F5F0EE8420D21CFEADF075F008EF2F0A
:10056E00FFED33FD4007985006D5F0F222C398FDFB
:05057E000FD5F0EA2298
:10058300C5F0F8A3E028F0C5F0F8E5821582700203
:060593001583E038F022A0
:10059900A3F8E0C5F025F0F0E58215827002158315
:0605A900E0C838F0E82272
:1005AF00BB010A89828A83E0F5F0A3E02250068717
:1005BF00F009E71922BBFE07E3F5F009E3192289D9
:0B05CF00828A83E493F5F0740193220C
:0D05DA00CFF4CFCEF4CECDF4CDCCF4CC22B6
:1005E700EB9FF5F0EA9E42F0E99D42F0E89C45F06A
:0105F70022E1
:1005F800E8600FECC313FCED13FDEE13FEEF13FFE1
:03060800D8F12204
:10060B00E8600FEFC333FFEE33FEED33FDEC33FC4D
:03061B00D8F122F1
:10061E00BB010DE58229F582E5833AF5830206F0EA
:10062E005007E92582F80206E4BBFE07E92582F8A9
:10063E000206FCE58229F582E5833AF58302070876
:10064E00BB010789828A8302075A5005E9F802071F
:0A065E004EBBFE05E9F80207662214
:10066800BB010DE58229F582E5833AF58302075A35
:100678005007E92582F802074EBBFE07E92582F8F4
:0406880002076622DD
:10068C00BB010789828A830207255005E9F8020716
:10069C0018BBFE05E9F802073189828A8302073EFE
:0C06AC00A42582F582E5F03583F5832259
:1006B800EF4E6012EF60010EEDBB010B89828A8359
:1006C800F0A3DFFCDEFA2289F05007F709DFFCA966
:0C06D800F022BBFEFCF309DFFCA9F022BD
:0C06E400E6FC08E6FD08E6FE08E6FF2242
:0C06F000E0FCA3E0FDA3E0FEA3E0FF227D
:0C06FC00E2FC08E2FD08E2FE08E2FF223A
:10070800E493FC740193FD740293FE740393FF2237
:0D071800E6FB08E6F908E6FA08E6CBF82251
:0C072500E0F8A3E0F9A3E0FAA3E0FB2257
:0D073100E2FB08E2F908E2FA08E2CBF82248
:10073E00E493F8740193F9740293FA740393FB2211
:0C074E00ECF608EDF608EEF608EFF622D7
:0C075A00ECF0A3EDF0A3EEF0A3EFF02212
:0C076600ECF208EDF208EEF208EFF222CF
:00000001FF
