:03000000021319CF
:1013190078FFE4F6D8FD9000007F007E04E4F0A396
:0A132900DFFCDEFA75815202136E3C
:101F180075D21375D36475D11275D6BFE4F5D44361
:031F2800A90222E9
:030043000217C4DD
:1017C400C0E0C0D075D000C006C00753D2BF0543E7
:1017D400E543AE427002054214D39545EE9544406C
:1017E40033754200754300AFD6EF700B754601F5B3
:1017F4004775440175452CAFD6EF64BF700AF546B2
:10180400754701F544754596E546600205D6E547FA
:0D181400600215D6D007D006D0D0D0E0324B
:101ED1007E007F067D007B007A0079421206B853AE
:081EE100D27FE4F5D3F5D6220F
:101E9F007E007F067D007B007A0079421206B853E0
:091EAF00D27FE4F5D375D6FF22C1
:071FD100121F1843D2802209
:051CD600EF6402702222
:101CDB00F50AF50B758FC0759D50F50A750B4E8582
:101CEB000B9EE50AF59575A90143A101D2A0E4FE6F
:021CFB00FF22C6
:051CFD007EFF7FFF22C5
:1014DC008B128A138914EF64017027E5161516AC6C
:1014EC0015700215154C605CC299AB120514E5140D
:1014FC00AA137002051314F91204F1F5992099DB63
:10150C0080FBEF6402703DE5217039D3E51694073A
:10151C00E5159400502E7E007F0C7D007B007A0038
:10152C0079211206B8AE15AF1678267C007D00AB7B
:10153C0012AA13A9141204CB851522851623752122
:05154C000185269F222D
:101F2B00E4F58E758911758A18758CFCC28CD2A953
:031F3B00D28C2223
:061EB800044C00000000D4
:0A1F9300E4F54FF54EF54DF54C2234
:101E6B00AF4FAE4EAD4DAC4CEF2401F54FE43EF50C
:0A1E7B004EE43DF54DE43CF54C2229
:091FA700AF4FAE4EAD4DAC4C2223
:101E18008F4B8E4A8D498C48121FA712064EAF4B26
:0C1E2800AE4AAD49AC48900004020668C8
:101C78008B508A51895290000412061E12068CC39A
:101C8800E54F9BFBE54E9AFAE54D99F9E54C98F836
:101C9800C31205E7E440047F018001FFFEFDFC223A
:041DBF007F057E001E
:101DC300EF1FAA0670011E4A600F7D05EDD3940034
:091DD3007480948040EA1D80F345
:011DDC0022E4
:091FB0001205AFFFAEF0021F6242
:10169A008B118A1289131205AFFFAEF07B017A0013
:1016AA00E4FDFC121D2E121DBFAB11AA12A91312C2
:1016BA0005AFFFAEF07B017A007D017C00121D2E82
:1016CA00121DBFAB11AA12A9131205AFFFAEF0E4A7
:1016DA00FBFAFDFC121D2E121DBFAB11AA12A91393
:1016EA001205AFFFAEF0E4FBFA7D01FC121D2E7F5E
:0616FA00057E00021DC385
:060EEB00AB0AAA0BA90CE2
:080EF1008B118A1289138D1484
:100EF900E4F515C3E5159408748094805065E514EC
:100F0900AB11AA12A91330E70D1205AFFFAEF07BA2
:100F1900017A00E480091205AFFFAEF0E4FBFAFDA7
:100F2900FC121D2EE51425E0F514121DBFAB11AA04
:100F390012A9131205AFFFAEF07B017A007D017C87
:100F490000121D2E121DBFAB11AA12A9131205AF53
:100F5900FFAEF0E4FBFA7D01FC121D2E121DBF0548
:100F6900158090AB11AA12A9131205AFFFAEF0E4D8
:100F7900FDFC121E85AB11AA12A9131205AFFFAE13
:100F8900F07B017A007D017C00121D2E121DBFAB82
:100F990011AA12A9131205AFFFAEF0E4FDFC121E4F
:100FA90034EF4E6005E4F5168003751601AB11AAFE
:100FB90012A9131205AFFFAEF0E4FBFA7D01FC1292
:100FC9001D2E121DBFAB11AA12A9131205AFFFAE38
:0C0FD900F07D017C00121E85AF167E002A
:010FE50022E9
:1019D6008B118A1289131205AFFFAEF0E4FBFA7D74
:1019E60001FC121D2E121DBFAB11AA12A91312055E
:1019F600AFFFAEF07B017A007D017C00121D2E1236
:101A06001DBFAB11AA12A9131205AFFFAEF07B01E1
:101A16007A00E4FDFC121D2E121DBF7FE87E030234
:021A26001DC3DE
:101700008B118A1289131205AFFFAEF07B017A00AC
:10171000E4FDFC121D2E121DBFAB11AA12A913125B
:1017200005AFFFAEF07B017A007D017C00121D2E1B
:10173000121DBFAB11AA12A9131205AFFFAEF0E440
:10174000FBFA7D01FC121D2E121DBFAB11AA12A9BE
:10175000131205AFFFAEF0E4FBFAFDFC121D2E7F65
:06176000057E00021DC31E
:0613B3008B118A12891360
:1013B900E4F5141205AFFFAEF0E4FDFC121E851230
:1013C9001DBFE4F515C3E515940874809480505B3E
:1013D900AB11AA12A9131205AFFFAEF07B017A0077
:1013E9007D017C00121D2E121DBFAB11AA12A9137B
:1013F9001205AFFFAEF0E4FDFC121E34EF4E600F94
:10140900AF15A8077480088002C313D8FC4214AB37
:1014190011AA12A9131205AFFFAEF0E4FBFA7D0180
:10142900FC121D2E121DBF0515809AAB11AA12A917
:10143900131205AFFFAEF07D017C00121E85AF14BB
:011449002280
:101AC6008D0D8B0A8A0B890C12169AAB0AAA0BA9E2
:101AD6000CAD0D120EF1EF4EAB0AAA0BA90C700756
:101AE6001219D6E4FEFF221213B3AB0EAA0FA910E9
:101AF600EF12050AAB0AAA0BA90C121700AB0AAA29
:0B1B06000BA90C1219D67E007F0122F3
:101B5B008D0D8B0A8A0B890C12169AAD0D120EEB9A
:101B6B00EF4E7008AB0AAA0BA90C800FAD0E120E2C
:101B7B00EBEF4EAB0AAA0BA90C70071219D6E4FEB9
:101B8B00FF22121700AB0AAA0BA90C1219D67E0062
:031B9B007F0122A5
:0F1F6200EF4E70064391304390307E007F012296
:101E8500EF4E7012ED4C70055391DF8009ED640142
:0A1E95004C7003439120E4FEFF228D
:101D2E00EF4E7020ED4C700CEB4A6004D29580148F
:101D3E00C2958010ED64014C700AEB4A6004D29497
:081D4E008002C294E4FEFF22B2
:101E3400EF4E7014ED4C7004A2958008ED64014CD3
:0C1E44007006A294FE33FF22E4FEFF2291
:0800030012127212077280FB59
:0A1EBE00430096000000023100000E
:101DFB00439A0243A1FC43D90353A23FD2A7D2D9A2
:0D1E0B00D2D8D2A2D2A5D2A4D2A3D28122D5
:10162F0090005FE064017010C2D9C2A7900062E021
:10163F0054FEF0121ED1801790005FE064027022FA
:10164F00C2D9900062E054FEF0121ED1121E9F7B91
:10165F00017A007992900094E0FD900062E0F50E1F
:10166F008025121ED1900078E06003121FD1D2D9CD
:10167F00D2A7900062E04401FFF07B017A007992DB
:0B168F00900094E0FD8F0E121B5B2208
:1009E30090005EE07003020A92900062E0A3F09030
:1009F3000078E0700690005EE0600B900062E054C7
:100A0300DFF0C2A38009900062E04420F0D2A390FB
:100A1300005FE0FD7C00700B900062E04401F0D2C7
:100A2300D98017ED64014C600890005FE0640270A8
:100A330009900062E054FEF0C2D9900079E06401AD
:100A4300700BC2A4900062E054EFF08009D2A4902E
:100A53000062E04410F090007AE06401700BC2D8A9
:100A6300900062E054FDF08009D2D8900062E04427
:100A730002F0C281900062E04440FFF07B017A0003
:100A83007992900094E0FD8F0E121B5B020B76901F
:100A9300007DE0603DE4F090008404F0E490008A7F
:100AA300F0A3F0900062F0900078F0900062E044D0
:100AB300BFFFF07B017A007992900094E0FD8F0EE6
:100AC300121B5BD2D9D2D8D2A2D2A5D2A4D2A3D29E
:100AD3008122900063E0900062F090005FE0FD7C73
:100AE30000700B900062E04401F0D2D98017ED64EE
:100AF300014C600890005FE064027009900062E0BE
:100B030054FEF0C2D9900078E0700690005EE06079
:100B13000B900062E054DFF0C2A38009900062E012
:100B23004420F0D2A3900079E06401700BC2A4903A
:100B33000062E054EFF08009D2A4900062E0441018
:100B4300F090007AE06401700BC2D8900062E05428
:100B5300FDF08009D2D8900062E04402F07B017A74
:100B6300007992900094E0FD900063E0F50E121B73
:100B73005BD28190007C7401F0E490008AF0A3F0D2
:010B8300224F
:101F010090005EE0701090007C04F090007BF0E4A3
:071F110090008AF0A3F0220A
:101EE90090005EE0701190007C04F090007B04F09B
:081EF900E490008AF0A3F0223E
:1017660090005EE0705790007C04F0900078E07086
:101776001A900062E054DFF0C2A39000787401F082
:1017860090005FE0701C121FD18017900062E04449
:1017960020F0D2A3E4900078F090005FE07003128E
:1017A6001ED17B017A007992900094E0FD90006250
:0E17B600E0F50E121B5BE490008AF0A3F02217
:1018210090005EE0705390007C04F0900079E064D9
:10183100019000626019E054EFF09000797401F0BA
:10184100900080F0E490008EF0A3F0C2A4800FE03D
:101851004410F0D2A4E4900079F0900080F07B0174
:101861007A007992900094E0FD900062E0F50E120A
:0A1871001B5BE490008AF0A3F02254
:10187B0090005EE0705190007C04F090007AE09054
:10188B0000627019E054FDF090007A7401F0900042
:10189B0081F0E4900090F0A3F0C2D8800FE04402F6
:1018AB00F0D2D8E490007AF0900081F07B017A00BE
:1018BB007992900094E0FD900062E0F50E121B5BB4
:0818CB00E490008AF0A3F02272
:03003E000209E3D1
:031FD800021EE9FD
:031FDB00021F01E1
:1015C20090005EE0706690007C04F0E53570537523
:1015D2003501900097E004F024FE601D146032246F
:1015E20002702E90005FE0640260377402F0900097
:1015F2008214F0E4900086801390005FE064016042
:10160200217401F0900083F0E4900088F0A3F08050
:1016120011E490005FF0900083F0900082F090005F
:0D16220097F012162FE490008AF0A3F0223A
:031FDE00021821C5
:041C1000AD07AC066A
:101C1400750A55750B01ECF50CEDF50DE50A250B70
:101C2400250C250DF50E750F0D75100A7B007A0035
:101C3400790A7515007516077F021214DCE4FEFF9D
:011C4400227D
:1010D300900045E020E7030211B6547FF0120B8421
:1010E300900061EFF014607224FD605E24FC604A9E
:1010F30024F8603324F0601B24E0706E900065E0F8
:10110300644070030211B37440F075370175380100
:101113000211B3900065E0642070030211B37420E0
:10112300F0121FDE0211B3900065E0641070030239
:1011330011B37410F0121FD88076900065E0640834
:10114300606E7408F0121FDB8066900065E0640433
:10115300605E7404F012187B8056900065E06401B1
:10116300604E7401F01215C28046900065E0604045
:10117300E4F0753702F538F533F534F535D2A5D2F9
:10118300A2900062E04404F04408FFF07B017A007F
:101193007992900094E0FD8F0E121B5BE490005C4B
:1011A300F090007BE06009A37401F0E490007BF011
:0411B300121FE42201
:1018D300C3900089E09410900088E0940E404890F3
:1018E300005FE064017040F090007C04F0D2D9D234
:1018F300A7753702E4F538F533F534F535900097DD
:10190300F0900078E06005121FD18003121ED19081
:101913000062E04401FFF07B017A00799290009429
:08192300E0FD8F0E121B5B2298
:10192B00C3900087E09420900086E0941C40489080
:10193B00005FE064027040F090007C04F0D2D9D2DA
:10194B00A7753702E4F538F533F534F53590009784
:10195B00F0900078E06005121FD18003121ED19029
:10196B000062E04401FFF07B017A007992900094D1
:08197B00E0FD8F0E121B5B2240
:101B9E00C3900091E09410900090E0940E402A9033
:101BAE00007AE064017022F090007C04F0D2D8D26A
:101BBE00A7900062E04402FFF07B017A00799290D8
:0A1BCE000094E0FD8F0E121B5B2255
:101BD800C390008FE0940890008EE094074028900E
:101BE8000079E064017020F090007C04F0D2A490A9
:101BF8000062E04410FFF07B017A00799290009433
:081C0800E0FD8F0E121B5B22B0
:101CA8008E2D8F2ED3E52E9400E52D9400401E75C1
:101CB8002F007530C8E53015307002152FE5304516
:0D1CC8002F70F2E52E152E70DB152D80D744
:011CD50022EC
:10127200121DFB121F18121ED17F02121CD6121F42
:101282002B121F93E4F508F509AE08E5097802C3AD
:1012920033CE33CED8F9FF2492F58274003EF58323
:1012A200E508F0A3E509F04508701A74952FF58258
:1012B20074003EF583745BF074942FF58274003EE3
:1012C200F583745AF074922FF974003EFA7B01127E
:1012D2001FB00509E50970020508C39401E5086419
:1012E20080948040A47F887E13121CA84392809031
:1012F2000062E044BFFFF07B017A00799290009493
:10130200E0FD8F0E121B5B12155190007C7401F0F0
:06131200900084F0D2AF50
:0113180022B2
:1007720075CF101210D3309703020863900095E0F2
:10078200FD750E01750F007510607B017A0079927C
:10079200121AC6900060E024FE602824FE6038240D
:1007A200FC604724F8605424F06060241F706C9051
:1007B2000064E0640870030208637408F0121FDB2F
:1007C200020863900064E06402700302086374022A
:1007D200F012187B020863900064E0640470030264
:1007E20008637404F01215C28077900064E064011B
:1007F200606F7401F0F537F5388066900064E0644C
:1008020010605E7410F0121FDE8056900064E06487
:1008120020604E7420F0121FD88046900064E06081
:1008220040E4F0753702F538F533F534F535D2A5E5
:10083200D2A2900062E04404F04408FFF07B017A07
:10084200007992900094E0FD8F0E121B5BE4900001
:100852005DF090007BE06009A37401F0E490007BFE
:10086200F0E5361460121460482402704EE53764D5
:100872000170487536018043E5376402700C121727
:1008820066E4F536F537F533F534D3E53494DCE533
:100892003394054026753602E4F533F53490005E54
:1008A200E0700404F08005E490005EF012003E80E7
:1008B2000AE53764027004F536F537900085E0707A
:1008C2001F7B017A007992900094E0FD900062E033
:1008D200F50E121B5BE4900085F090008CF0A3F003
:0908E20090007CE070030209C0E3
:1008EB00E4F508F509F0900078E0FF7E00640170F4
:1008FB00085309FD430901800AEF4E70065309FEA8
:10090B0043090290007BE0FF7E0060046403700BE0
:10091B005309BF53097F4309208020EF64014E70B8
:10092B000B5308FE53097F430940800FEF64024EBF
:10093B0070095309BF5309BF43098090005FE0FF63
:10094B007E006401700B5309F75309FB43091080B8
:10095B001AEF64024E700B5309FB5309EF4309085E
:10096B0080095309EF5309F7430904900079E0FF1D
:10097B007E00640170085308DF430810800AEF4EB5
:10098B0070065308EF43082090007AE0FF7E006466
:10099B0001700853087F430840800AEF4E700653DE
:1009AB0008BF430880900076E508F0A3E509F0FF47
:0509BB00AE08121C1043
:1009C00090007FE06011E4F090007EF0900076E00F
:1009D000FEA3E0FF121C1012192B121BD8121B9E33
:0309E0000218D327
:03003B00021B1194
:0D1B1100C0E0C0D075D000C000C006C00705
:101B1E00751D00E59D30E12A539DFDE52324FFFF51
:101B2E00E52234FFFEEFB5250BEEB5240775210037
:101B3E00D2A0800E0525E525700205242426F8E6A0
:021B4E00F59F01
:0B1B5000D007D006D000D0D0D0E0328B
:03000B00020FE6FB
:100FE600C0E0C0F0C083C082C0D075D000C000C0D1
:0D0FF60001C002C003C004C005C006C00752
:10100300758A18758CFC121E6BE53860080534E58B
:1010130034700205330532E532AE31700205311406
:10102300D394E8EE940350030210B875310075327F
:1010330000900083E0601E900088E475F0011205C3
:1010430099FED3E5F09410EE940E4009900083E4EA
:10105300F090005FF0900082E0601A900086E475E3
:10106300F001120599FED3E5F09420EE941C40059F
:10107300900082E4F0900080E0601A90008EE475A6
:10108300F001120599FED3E5F09408EE94074005AC
:10109300900080E4F0900081E0601A900090E47585
:1010A300F001120599FED3E5F09410EE940E40057D
:0510B300900081E4F053
:1010B800D007D006D005D004D003D002D001D0008C
:0B10C800D0D0D082D083D0F0D0E03236
:101A28000000000000000005000A0BB800C80064B0
:101A380000020000000000040000FFFFFFFFFFFF9E
:101A48000014022604081105007C022604080E056D
:101A5800006C022604080E05006A02260408100518
:101A68000067022604081205007002260408130500
:021A7800005F0D
:041EC80041005B007A
:0B1F7D00901A32E493FE740193FF22DF
:0B1F8800901A36E493FE740193FF22D0
:081FB900901A30740193FF221D
:031FE1007F01225B
:101D0200AD07ED75F008A42450F582E4341AF5838A
:101D1200E493FEED75F008A42451F582E4341AF53B
:0C1D220083E4937C002400FFEC3EFE22D2
:101F3E00EF75F008A4244DF582E4341AF583E4938A
:021F4E00FF2270
:081FC100901A2A740193FF221B
:101F5000EF75F008A4244EF582E4341AF583E49377
:021F6000FF225E
:081FC900900000E0C313FF22A9
:0A1F9D00900000E075F00384FF22BD
:10004600121D02EF7803C333CE33CED8F9FF7C00FE
:050056007D0A02052EE9
:10198300E4FBFAF50DF50CF50BF50A750D7DF50C79
:10199300F50BF50AEBC39417748094805032AF0DA6
:1019A300AE0CAD0BAC0A78011205F88F0D8E0C8DC1
:1019B3000B8C0A30D71774132AF582E43400F583AD
:1019C300EBF00AEAC394067480948050030B80C43E
:0219D3008A4147
:0119D50022EF
:10000E00EF1460121460141460111460152404703F
:10001E0019901A4A8008901A4B8003901A4CE49358
:0D002E00FF22901A3C740193FF227F0022F4
:101DA000901A2E740193900000F0901A48740193D9
:0F1DB000900048F0121983E4900046F0A3F0224F
:100B8400E4F50AF50EF50DF50CF50BF512F511F576
:100B940010F50F121FE75003020CA0121D7B8F0EDD
:100BA4008E0D8D0C8C0BE4FBEBC395415047AF0EBF
:100BB400AE0DAD0CAC0B78011205F88F0E8E0D8DB9
:100BC4000C8C0B30D72CE47F01FEFDFC74132BF549
:100BD40082E43400F583E0F9F812060BE5124FF5D0
:100BE40012E5114EF511E5104DF510E50F4CF50F1A
:100BF400050A0B80B3AF0A7E00C3EF94027480949D
:100C0400804018D200EF9403748094804005121F32
:100C1400EA8008121FC1EF6002C20020002CE4FF2A
:100C2400FEFDFCAB12AA11A910A80FC31205E760C0
:100C340010900047E004F07006900046E004F08055
:100C440020E4900046F0A3F08017900044E004F004
:100C54007006900043E004F0E4F512F511F510F588
:100C64000F121F7DD3900047E09F900046E09E4006
:100C74000A121FEAE4900046F0A3F0D3900044E087
:100C8400942C900043E09401401D121FEA90005BF5
:100C94007401F0E4900043F0A3F0800B901A38E460
:0F0CA400740193FF120CB4AF12AE11AD10AC0F70
:010CB300221E
:041ECC0041009F0032
:100DD30075F0029000491206ACE0FEA3E0FFE515B2
:100DE30075F0029000190206ACE51475F00290004C
:100DF300010206ACE51475F0029000310206AC74F2
:100E0300252518F582E43400F58322D3E5169FEEF9
:100E13006480F8E51564809822743D2514F582E416
:100E23003400F58322D3FFED9FEE6480F8EC6480F9
:100E3300982274552514F582E43400F58322E004E6
:100E4300F0740D2514F582E43400F58322E515755D
:100E5300F0029000490206ACFEC3E5179FEE6480E2
:100E6300F8E51664809822E53C5540FFE53B553F85
:100E7300FEE53A553EFDE539553DFC22742B25141C
:100E8300F582E43400F58322E4F0FFFEFDFCAB3C85
:100E9300AA3BA93AA839C30205E77E0090009BE06C
:100EA300FCA3E0FD12051C8EE78FE622E0FEA3E023
:100EB300FF75F00222A4FFE0C39FE5F06480F8749D
:100EC300809822900048E0FB3395E0FAEBAE0222D3
:100ED300E0FCA3E0FDEF22E0FCA3E0C39F2290002F
:080EE30048E0FF3395E0FE2218
:0C1F7100EF4E6007EF1F70F81E80F52295
:03005B0002144A42
:10144A00C0E0C0F0C083C082C0D075D000C000C068
:0D145A0001C002C003C004C005C006C007E9
:10146700C2029000A0E0120DE3E5E5F0A3E5E4F089
:101477009000A0E004F0E0C39541400BE4F0900039
:1014870045E04480F08002D2029000A0E0FF121FE6
:101497003E120E9D9000A0E0FF121F50E5E254801F
:1014A7004FF5E29000A0E02413F582E43400F583C1
:0A14B700E04480F5E8300202D2EEB6
:1014C100D007D006D005D004D003D002D001D0007F
:0B14D100D0D0D082D083D0F0D0E03229
:10155100D2AF75E880C201E49000A0F0900045F0A0
:10156100121DA0E4FF12000EEF2401FDE433FC7E06
:101571000B7FB812052E90009BEEF0A3EFF0E4FF75
:10158100121F3E120E9D7F0212000EEFC454F0FE98
:10159100C006E4FF12000ED0E02FF5E17F03120038
:1015A1000EE5E254804FF5E27F0112000E8FE31247
:1015B1001A7A43A910900013E042E8121C45021E5A
:0115C10050D9
:031FE400D2EE2218
:101D5600E4FD900045E0547FF0D2EE900045E0208F
:101D6600E7127FE87E03121F7143CF100DEDC39477
:041D76003240E822ED
:011D7A002246
:101C4500750A10121D56AF0A150AEF70F6121DDD42
:101C5500121FB98F0A121D56E4F50BE50BC395410A
:101C65005009AF0B1211B7050B80F0AF0A150AEF3B
:021C750070E31A
:011C7700224A
:101E5000E4FFEFC395415012EF120DE3120ED312BF
:0A1E60000DEEECF0A3EDF00F80E8AA
:011E6A002255
:101D7B00E49000A1F0F513E513C39541500EAF139A
:101D8B001211B7AF1312005E051380EBAF3CAE3BE5
:041D9B00AD3AAC3978
:011D9F002221
:02005E008F14FD
:10006000E4F51C75F002EF120DF1120EAFE514125B
:100070000DE6120EDAF516EC9EF515E47F01FEFD95
:10008000FCA914A80112060B8F408E3F8D3E8C3DBB
:10009000AF14121D028E1A8F1BC3E516951BE51AAD
:1000A000120E1340057517018003E4F517E5176478
:1000B0000160030201E574252514120E06E0C394C5
:1000C000FA500A74252514120E06E004F0120E6A86
:1000D000E4FBFAF9F8C31205E760030201C89000D7
:1000E00000E0F519121FE1EF6028E4F517F518E5B7
:1000F00018C39541500F120E02E0C394014002054F
:1001000017051880EAE517C394034006740F2519F4
:10011000F51974252514120E06E0C3951950030233
:1001200001C8E4F517121FC1EF7051F518E518C3A7
:100130009541501AE51465186010121F9D120E02A9
:10014000E0C39F40057517018004051880DF121F6A
:10015000E1EF7052E517704EF518E518C395415060
:1001600045E51465186011121F9D742B2518120E99
:1001700083E0C39F4002802B051880DE121FE1EF51
:100180007024F519F518E518C39541500F120E02A9
:10019000E0C3940240020519051880EAE519C394EA
:1001A000034003751701E517B40102D200E53C4591
:1001B00040FFE53B453FFEE53A453EFDE539453D1F
:1001C0008F3C8E3B8D3AF539120E1CE4F0120E3541
:1001D000E4F0120DF7E4F0A3F0740D2514F582E4B9
:1001E00034000203B8AF14120046120E0E4008127B
:1001F0000E7FE004F0800B9000A1E004F0120E7F6F
:10020000E4F0120EE1C3E49FFDE49EFCC3E5169DFD
:10021000EC120E134066120E0E5061120E1CE41208
:100220000E43120E8B6003020325120DF7E51585B0
:1002300016F0120583121F88120DF7E0FCA3E0C32D
:10024000120E2B4009120DECE475F0018021121FF3
:1002500088C3E49FFFE49EFE120DF7E0FCA3E0C319
:10026000120E2B4003020325120DEC74FFF5F01261
:100270000583120DF7E4F0A3F0020325900048E097
:10028000FFFD3395E0FCC3E49DFDE49CFCC3E51653
:100290009DEC120E135057120E1C120E41E4F01278
:1002A0000E1CE0FE75F00A84E5F07034EEC3946431
:1002B000400E120E1CE4F0D20190005B04F080208E
:1002C000120DECC083C082120ED3A2E713FF339548
:1002D000E0FEC3ED9FFFEC9ED082D083F0A3EFF051
:1002E00090009AE06514703D74FFF0020325120E31
:1002F000E1120E0E402F120E1C120E8B7027120EE2
:1003000044120E41E0B4201D120E44E4F090004867
:10031000E0A2E713A2E713FF3395E0FE120DECEE27
:100320008FF0120583120E6A4D4E4F70030203C404
:10033000E51BAE1A7802CEA2E713CE13D8F8FFC39E
:10034000E51B9FFFE51A9EFEC3120E0F506F120EA3
:1003500035E004F0121FC98F19E4F518E518C395AC
:1003600041500F120E02E0C3940140020517051818
:1003700080EAE517C394034006900000E0F51912E7
:100380000E35E0C395194072120E35E4F0AF40AE61
:100390003FAD3EAC3D1205DAE53C5FFFE53B5EFE5E
:1003A000E53A5DFDE5395C8F3C8E3B8D3AF539745D
:1003B000252514F582E43400F583E4F022120E358D
:1003C000E014F02274252514120E06E4F0E5411421
:1003D000651470269000A1E0C39541401DE4F51816
:1003E000E518C39541500D120E02E0600375170128
:0A03F000051880ECE5177002C2004A
:0103FA0022E0
:101DDD00E4FFEFC39541501575F002EF120DE612B9
:0D1DED000ED3120E52ECF0A3EDF00F80E5C6
:011DFA0022C6
:0211B7008F1592
:1011B900EF120DD3120EDAF517EC9EF516AF1512D4
:1011C9001D02AD07AC06D3E5179DEC120E61500B5D
:1011D900C3E49DFFE49C120E5B500B120DE1E0FE8F
:1011E900A3E0FF02125FECA2E713FEED13FFD31297
:1011F9000E5D500BC3E49FFFE49E120E5B50271255
:101209000E50E0FCA3E0FDECC313FEED13FFC3EDAC
:101219009FFDEC9EFC120DE1E0C313FEA3E0132D2C
:10122900FFEC3EFE8030120E50E0FCA3E0FDAE0460
:101239007803CEC313CE13D8F9FFC3ED9FFDEC9EFF
:10124900FC120DE1E0FEA3E07803CEC313CE13D860
:10125900F92DFFEC3EFE120E50EEF0A3EFF0E5156E
:08126900120DD3EEF0A3EFF02B
:01127100225A
:031FE700A2012232
:031FEA00D20122FF
:101A7A00E4FFEFC39541502B74252F120E06E4F0B4
:101A8A00743D2F120E20E4F074552F120E39E4F033
:101A9A00EF120DF9E4F0A3F0742B2F120E83E4F089
:101AAA000F80CFE4F53CF53BF53AF53990009A748E
:0B1ABA00FFF0E490009DF0A3F0C201DB
:011AC50022FE
:020CB4008F139C
:100CB60090009FE0C394034035E4F090005BE07041
:100CC60022F514E514C39541501975F002E5141286
:100CD6000E55120EAFE514120DF1EEF0A3EFF0056E
:100CE6001480E0121A7AC201E490005BF0229000B0
:100CF60099E004F0E0B51308121DDDE490009AF0C7
:100D0600900099E0D395135003020DD2E4F514E553
:100D160014C39541507A75F002E514120E55120E61
:100D2600AFE514120DE6120EDAFFEC9EAD07FC904D
:100D3600005BE07029120EC67802C333CE33CED8DC
:100D4600F9120E284040E49BFFE49AFEEF7802C3B6
:100D560033CE33CED8F9C3120E29502A8032120E62
:100D6600C67803C333CE33CED8F9120E284017E423
:100D76009BFFE49AFEEF7803C333CE33CED8F9FF58
:100D8600C3120E2A400AAF141211B70514020D152C
:100D9600E514B5410690009AE004F0E51375F008F5
:100DA600900099120EB84024E4F0C20090009FE033
:100DB60004F0E51375F00490009A120EB8400DE4A5
:0C0DC60090009FF0121E50121A7AC20119
:010DD20022FE
:10133300020003E493A3F8E493A34003F68001F2CD
:1013430008DFF48029E493A3F85407240CC8C333BB
:10135300C4540F4420C8834004F456800146F6DF8A
:10136300E4800B0102040810204080901EB8E47E44
:10137300019360BCA3FF543F30E509541FFEE4937F
:10138300A360010ECF54C025E060A840B8E493A346
:10139300FAE493A3F8E493A3C8C582C8CAC583CA71
:1013A300F0A3C8C582C8CAC583CADFE9DEE780BE29
:011ED0000011
:1003FB00E709F608DFFA8046E709F208DFFA803EE4
:10040B0088828C83E709F0A3DFFA8032E309F608D0
:10041B00DFFA8078E309F208DFFA807088828C8338
:10042B00E309F0A3DFFA806489828A83E0A3F608EC
:10043B00DFFA805889828A83E0A3F208DFFA804CC6
:10044B0080D280FA80C680D4806980F2803380109D
:10045B0080A680EA809A80A880DA80E280CA803306
:10046B0089828A83ECFAE493A3C8C582C8CCC5837E
:10047B00CCF0A3C8C582C8CCC583CCDFE9DEE7804E
:10048B000D89828A83E493A3F608DFF9ECFAA9F0CD
:10049B00EDFB2289828A83ECFAE0A3C8C582C8CC23
:1004AB00C583CCF0A3C8C582C8CCC583CCDFEADE3C
:1004BB00E880DB89828A83E493A3F208DFF980CC9E
:1004CB0088F0EF60010E4E60C388F0ED2402B40497
:1004DB000050B9F582EB2402B4040050AF2323453E
:0604EB00822390044B7314
:1004F100BB010689828A83E0225002E722BBFE0209
:09050100E32289828A83E493223B
:10050A00BB010689828A83F0225002F722BBFE01D0
:02051A00F322CA
:10051C00EF8DF0A4A8F0CF8CF0A428CE8DF0A42EF3
:02052C00FE22AD
:10052E00BC000BBE0029EF8DF084FFADF022E4CCB1
:10053E00F875F008EF2FFFEE33FEEC33FCEE9DEC7A
:10054E00984005FCEE9DFE0FD5F0E9E4CEFD22EDC0
:10055E00F8F5F0EE8420D21CFEADF075F008EF2F0A
:10056E00FFED33FD4007985006D5F0F222C398FDFB
:05057E000FD5F0EA2298
:10058300C5F0F8A3E028F0C5F0F8E5821582700203
:060593001583E038F022A0
:10059900A3F8E0C5F025F0F0E58215827002158315
:0605A900E0C838F0E82272
:1005AF00BB010A89828A83E0F5F0A3E02250068717
:1005BF00F009E71922BBFE07E3F5F009E3192289D9
:0B05CF00828A83E493F5F0740193220C
:0D05DA00CFF4CFCEF4CECDF4CDCCF4CC22B6
:1005E700EB9FF5F0EA9E42F0E99D42F0E89C45F06A
:0105F70022E1
:1005F800E8600FECC313FCED13FDEE13FEEF13FFE1
:03060800D8F12204
:10060B00E8600FEFC333FFEE33FEED33FDEC33FC4D
:03061B00D8F122F1
:10061E00BB010DE58229F582E5833AF5830206F0EA
:10062E005007E92582F80206E4BBFE07E92582F8A9
:10063E000206FCE58229F582E5833AF58302070876
:10064E00BB010789828A8302075A5005E9F802071F
:0A065E004EBBFE05E9F80207662214
:10066800BB010DE58229F582E5833AF58302075A35
:100678005007E92582F802074EBBFE07E92582F8F4
:0406880002076622DD
:10068C00BB010789828A830207255005E9F8020716
:10069C0018BBFE05E9F802073189828A8302073EFE
:0C06AC00A42582F582E5F03583F5832259
:1006B800EF4E6012EF60010EEDBB010B89828A8359
:1006C800F0A3DFFCDEFA2289F05007F709DFFCA966
:0C06D800F022BBFEFCF309DFFCA9F022BD
:0C06E400E6FC08E6FD08E6FE08E6FF2242
:0C06F000E0FCA3E0FDA3E0FEA3E0FF227D
:0C06FC00E2FC08E2FD08E2FE08E2FF223A
:10070800E493FC740193FD740293FE740393FF2237
:0D071800E6FB08E6F908E6FA08E6CBF82251
:0C072500E0F8A3E0F9A3E0FAA3E0FB2257
:0D073100E2FB08E2F908E2FA08E2CBF82248
:10073E00E493F8740193F9740293FA740393FB2211
:0C074E00ECF608EDF608EEF608EFF622D7
:0C075A00ECF0A3EDF0A3EEF0A3EFF02212
:0C076600ECF208EDF208EEF208EFF222CF
:00000001FF
