:0300000002120ADF
:10120A0078FFE4F6D8FD9000007F007E04E4F0A3A6
:0A121A00DFFCDEFA75815202125F5C
:101D6E007E007F067D007B007A0079421206B85312
:061D7E00D27FE4F5D32240
:101D9A0075D21375D36475D11275D6BFE4F5D443E1
:031DAA00A9022269
:030043000215EFB4
:1015EF00C0E0C0D075D000C006C00753D2BF0543BE
:1015FF00E543AE427002054214D39545EE95444043
:10160F0033754200754300AFD6EF700B754601F589
:10161F004775440175452CAFD6EF64BF700AF54688
:10162F00754701F544754596E546600205D6E547D1
:0D163F00600215D6D007D006D0D0D0E03222
:061E8400121D6EF5D622CE
:071E7600121D6E75D6FF225C
:071E7D00121D9A43D28022DE
:051B5D00EF640270229C
:101B6200F50AF50B758FC0759D50F50A750B4E85FC
:101B72000B9EE50AF59575A90143A101D2A0E4FEE9
:021B8200FF2240
:051B84007EFF7FFF223F
:1013CA008B128A138914EF64017027E5161516AC7F
:1013DA0015700215154C605CC299AB120514E51420
:1013EA00AA137002051314F91204F1F5992099DB76
:1013FA0080FBEF6402703DE5217039D3E51694074E
:10140A00E5159400502E7E007F0C7D007B007A004B
:10141A0079211206B8AE15AF1678267C007D00AB8E
:10142A0012AA13A9141204CB851522851623752135
:05143A000185269F2240
:101DAD00E4F58E758911758A18758CFCC28CD2A9D3
:031DBD00D28C22A3
:061D5500044C0000000038
:0A1E3900E4F54FF54EF54DF54C228F
:101D2100AF4FAE4EAD4DAC4CEF2401F54FE43EF557
:0A1D31004EE43DF54DE43CF54C2274
:091E4D00AF4FAE4EAD4DAC4C227E
:101CB3008F4B8E4A8D498C48121E4D12064EAF4BE8
:0C1CC300AE4AAD49AC489000040206682F
:101AFF008B508A51895290000412061E12068CC315
:101B0F00E54F9BFBE54E9AFAE54D99F9E54C98F8B0
:101B1F00C31205E7E440047F018001FFFEFDFC22B4
:1016F1007F057E00121C7BAB11AA12A9131205AF44
:10170100FFAEF0227B017A007D017C0022E4FBFA2E
:101711007D01FC22AB0AAA0BA90C22AB11AA12A9CA
:101721001322AB0AAA0BA90C227B017A00E4FDFC6F
:0F17310022AB11AA12A91322AB11AA12A91322DB
:041C77007F057E0067
:101C7B00EF1FAA0670011E4A600F7D05EDD394007D
:091C8B007480948040EA1D80F38E
:011C9400222D
:061E8A001216FE021E0804
:101867008B118A1289131216FE12172A121BDF1206
:101877001C771217321216FE121705121BDF121CE5
:10188700771217321216FEE4FBFAFDFC121BDF1269
:101897001C771217321216FE12170E121BDF7F0566
:0518A7007E00021C7B25
:0812A4008B118A1289138D14CD
:1012AC00E4F515C3E515940874809480503FE5145B
:1012BC00AB11AA12A91330E70A1216FE7B017A00B1
:1012CC00E480061216FEE4FBFAFDFC121BDFE514AB
:1012DC0025E0F5141216F1121705121BDF1216F188
:1012EC0012170E121BDF121C77051580B61216F89A
:1012FC00E4FDFC121D3B1216F8121705121BDF122F
:10130C0016F1E4FDFC121CCFEF4E6005E4F51680DF
:10131C00037516011216F812170E121BDF1216F1B6
:0B132C007D017C00121D3BAF167E000F
:011337002293
:1019F8008B118A1289131216FE12170E121BDF1290
:101A08001C77AB11AA12A9131216FE121705121B86
:101A1800DF121C77AB11AA12A9131216FE12172A8D
:0D1A2800121BDF121C777FE87E03021C7B7F
:1018AC008B118A1289131216FE12172A121BDF12C1
:1018BC001C771217391216FE121705121BDF121C99
:1018CC00771217391216FE12170E121BDF121C7725
:1018DC001217391216FEE4FBFAFDFC121BDF7F0512
:0518EC007E00021C7BE0
:06143F008B118A128913D3
:10144500E4F5141216FEE4FDFC121D3B121C77E4B4
:10145500F515C3E515940874809480504112171C46
:101465001216FE121705121BDF121C7712171C121B
:1014750016FEE4FDFC121CCFEF4E600FAF15A8075A
:101485007480088002C313D8FC421412171C12166C
:10149500FE12170E121BDF121C77051580B41217EA
:0D14A5001C1216FE7D017C00121D3BAF14D1
:0114B2002217
:1019B9008D0D8B0A8A0B890C121867121723AD0D2E
:1019C9001212A4EF4E12172370071219F8E4FEFF42
:1019D9002212143FAB0EAA0FA910EF12050A121713
:0F19E900231218AC1217231219F87E007F012267
:101979008D0D8B0A8A0B890C121867121715AD0D7C
:101989001212A4EF4E7005121715800F121715AD1C
:101999000E1212A4EF4E12171570071219F8E4FE71
:1019A900FF221218AC1217151219F87E007F0122B6
:0F1E0800EF4E70064391304390307E007F0122F1
:101D3B00EF4E7012ED4C70055391DF8009ED64018D
:0A1D4B004C7003439120E4FEFF22D8
:101BDF00EF4E7020ED4C700CEB4A6004D2958014E0
:101BEF00C2958010ED64014C700AEB4A6004D294E8
:081BFF008002C294E4FEFF2203
:101CCF00EF4E7014ED4C7004A2958008ED64014C3A
:0C1CDF007006A294FE33FF22E4FEFF22F8
:0800030012116D12077280FB5F
:0A1D5B004300960000000231000072
:100F2000E4F0753702F538F533F534F535D2A5D24E
:100F3000A2900062E04404F04408FFF07B017A00D4
:100F40007992900094E0FD22E475F001120599FE7B
:100F5000D3E5F02204F0E490008AF0A3F022F090B0
:100F6000007C04F0D2D9D2A7753702E4F538F53306
:100F7000F534F535900097F022900062E0F50E22EE
:100F8000D2D9D2D8D2A2D2A5D2A422900062E05463
:100F9000FEF02290005FE0640222900062E04401D3
:100FA00022900062E054DFF0C2A322900062E0448D
:100FB00020F0D2A322D2A4900062E044102290003C
:100FC00079E0640122E0FF7E00640122D2D8900023
:100FD00062E044022290005FE0640122C2A490001B
:100FE00062E054EFF02290007AE0640122C2D890CF
:100FF0000062E054FDF022A37401F0E490007BF065
:0110000022CD
:101D8400439A0243A1FC43D90353A23FD2A7120FA3
:061D940080D2A3D28122DF
:1018F100120FD5700CC2D9C2A7120F8B121E848091
:1019010010120F937013C2D9120F8B121E84121E64
:1019110076120F3C120F798018121E84900078E025
:101921006003121E7DD2D9D2A7120F9A120F3A8FDD
:051931000E12197922DD
:100E140090005EE0606A900062E0A3F0900078E0E9
:100E2400700690005EE06005120FA18003120FAB04
:100E340090005FE0FD7C007008120F9AF0D2D98018
:100E440010ED64014C6005120F937005120F8BC2F4
:100E5400D9120FBE7005120FDC8004120FB5F01208
:100E64000FE67005120FED8004120FCCF0C28190D2
:100E74000062E04440120F3A8F0E121979020F17E4
:100E840090007DE06026E4F0900084120F549000FE
:100E940062F0900078F0900062E044BF120F3A8F45
:100EA4000E121979120F80D2A3D28122900063E02E
:100EB400900062F090005FE0FD7C007008120F9AD1
:100EC400F0D2D98010ED64014C6005120F937005C7
:100ED400120F8BC2D9900078E0700690005EE0603B
:100EE40005120FA18003120FAB120FBE7005120F73
:100EF400DC8004120FB5F0120FE67005120FED80BE
:100F040004120FCCF0120F3C900063E0F50E12199E
:0C0F140079D28190007C7401120F5522EC
:101DC00090005EE0700B90007C04F090007B120F9E
:021DD00055229A
:101DD20090005EE0700B90007C04F090007B120F8C
:021DE200542289
:1019360090005EE0703C90007C04F0900078E070CF
:1019460014120FA19000787401F090005FE07016F9
:10195600121E7D8011120FABE4900078F090005FAC
:10196600E07003121E84120F3C120F7912197912BD
:031976000F5622E7
:10181F0090005EE0704190007C04F0120FBE9000CB
:10182F00626019E054EFF09000797401F09000803D
:10183F00F0E490008EF0A3F0C2A4800FE04410F00B
:10184F00D2A4E4900079F0900080F0120F3C120FB8
:08185F0079121979120F5622CB
:1017D60090005EE0704290007C04F090007AE09009
:1017E60000627019E054FDF090007A7401F09000E8
:1017F60081F0E4900090F0A3F0C2D8800FE044029C
:10180600F0D2D8E490007AF0900081F0120F3C12EA
:091816000F79121979120F562204
:03003E00020E149B
:031E9000021DD25E
:031E9300021DC06D
:10158C0090005EE0705C90007C04F0E535704D7569
:10159C003501900097E004F024FE601A14602C24AE
:1015AC00027028120F9360347402F090008214F0D1
:1015BC00E49000868010120FD560217401F0900029
:1015CC0083F0E4900088F0A3F08011E490005FF0C9
:1015DC00900083F0900082F0900097F01218F112B6
:0315EC000F562275
:031E960002181F10
:041A3500AD07AC0647
:101A3900750A55750B01ECF50CEDF50DE50A250B4D
:101A4900250C250DF50E750F0D75100A7B007A0012
:101A5900790A7515007516077F021213CAE4FEFF8D
:011A6900225A
:1010BC00900045E020E70302116C547FF012099C6C
:1010CC00900061EFF014606924FD605524FC6041D0
:1010DC0024F8602D24F0601824E07065900065E021
:1010EC00644060797440F0753701753801021169FC
:1010FC00900065E0642060657420F0121E96021169
:10110C0069900065E0641060547410F0121E9080B9
:10111C004C900065E0640860447408F0121E9380E3
:10112C003C900065E0640460347404F01217D680BF
:10113C002C900065E0640160247401F012158C8021
:10114C001C900065E06016120F208F0E121979E4C6
:10115C0090005CF090007BE06003120FF7121E9C75
:01116C002260
:101A9D00C3900089E09410900088E0940E402112CC
:101AAD000FD5701C120F5E900078E06005121E7D40
:101ABD008003121E84120F9A120F3A8F0E1219798B
:011ACD0022F6
:101ACE00C3900087E09420900086E0941C40211281
:101ADE000F93701C120F5E900078E06005121E7D51
:101AEE008003121E84120F9A120F3A8F0E1219795A
:011AFE0022C5
:101BB500C3900091E09410900090E0940E401A12AA
:101BC5000FE67015F090007C04F0D2D8D2A7120F62
:0A1BD500CE120F3A8F0E121979227A
:101C0700C390008FE0940890008EE094074016126E
:101C17000FBE7011F090007C04F0120FB5120F3A4E
:061C27008F0E1219792254
:10152400C390008BE0944090008AE0943840589037
:10153400007DE07052753702120F6C90007D04F04C
:1015440090005EF090007CF0E490005FF0900078F2
:10155400F090007BF0900065F0C2A3120F80C2816E
:10156400121E84D2A7E4900062F0F07402F04404E6
:10157400F04408F04410F04401F04440F0A3120F8A
:081584003B120F7912197922C4
:101B2F008E2D8F2ED3E52E9400E52D9400401E753B
:101B3F002F007530C8E53015307002152FE5304590
:0D1B4F002F70F2E52E152E70DB152D80D7BE
:011B5C002266
:10116D00121D84121D9A121E847F02121B5D121D08
:10117D00AD121E39E4F508F509AE08E5097802C38C
:10118D0033CE33CED8F9FF2492F58274003EF58329
:10119D00E508F0A3E509F04508701A74952FF5825E
:1011AD0074003EF583745BF074942FF58274003EE9
:1011BD00F583745AF074922FF974003EFA7B011284
:1011CD001E8A0509E50970020508C39401E5086446
:1011DD0080948040A47F887E13121B2F43928090B1
:1011ED000062E044BF120F3A8F0E1219791214B338
:0C11FD0090007C7401F0900084F0D2AFF0
:0112090022C2
:1007720075CF101210BC309703020830900095E03C
:10078200FD750E01750F007510607B017A0079927C
:100792001219B9900060E024FE602524FE60322424
:1007A200FC603E24F8604B24F06057241F70639075
:1007B2000064E0640860777408F0121E9302083047
:1007C200900064E0640260667402F01217D60208B8
:1007D20030900064E0640460557404F012158C805B
:1007E2004D900064E0640160457401F0F537F5381E
:1007F200803C900064E0641060347410F0121E9625
:10080200802C900064E0642060247420F0121E901A
:10081200801C900064E06016120F208F0E1219796E
:10082200E490005DF090007BE06003120FF7E53684
:100832001460121460482402704EE5376401704857
:100842007536018043E5376402700C121936E4F5FF
:1008520036F537F533F534D3E53494DCE5339405D6
:100862004026753602E4F533F53490005EE07004FC
:1008720004F08005E490005EF012003E800AE53745
:1008820064027004F536F537900085E07014120F9B
:100892003C120F79121979E4900085F090008CF0E7
:0B08A200A3F090007CE07003020976D8
:1008AD00E4F508F509F0900078120FC570085309AA
:1008BD00FD430901800AEF4E70065309FE430902FC
:1008CD0090007BE0FF7E0060046403700B5309BF52
:1008DD0053097F4309208020EF64014E700B5308AC
:1008ED00FE53097F430940800FEF64024E70095398
:1008FD0009BF5309BF43098090005F120FC5700BEC
:10090D005309F75309FB430910801AEF64024E7027
:10091D000B5309FB5309EF43090880095309EF53A2
:10092D0009F7430904900079120FC570085308DFC9
:10093D00430810800AEF4E70065308EF43082090CD
:10094D00007A120FC5700853087F430840800AEFE4
:10095D004E70065308BF430880900076E508F0A35B
:09096D00E509F0FFAE08121A358D
:1009760090007FE06011E4F090007EF0900076E059
:10098600FEA3E0FF121A35121ACE121C07121BB56F
:06099600121A9D02152457
:03003B0002178C1D
:0D178C00C0E0C0D075D000C000C006C0078E
:10179900751D00E59D30E12A539DFDE52324FFFFDA
:1017A900E52234FFFEEFB5250BEEB52407752100C0
:1017B900D2A0800E0525E525700205242426F8E629
:0217C900F59F8A
:0B17CB00D007D006D000D0D0D0E03214
:03000B00020BE302
:100BE300C0E0C0F0C083C082C0D075D000C000C0D8
:0D0BF30001C002C003C004C005C006C00759
:100C0000758A18758CFC121D21E53860080534E5DD
:100C100034700205330532E532AE3170020531140D
:100C2000D394E8EE94035003020CAD753100753295
:100C300000900083E06016900088120F489410EE38
:100C4000940E4009900083E4F090005FF0900082E1
:100C5000E06012900086120F489420EE941C40052C
:100C6000900082E4F0900084E0601290008A120FFD
:100C7000489440EE94384005900084E4F090008061
:100C8000E0601290008E120F489408EE9407400521
:100C9000900080E4F0900081E06012900090120FCC
:100CA000489410EE940E4005900081E4F090007F8F
:100CB000E0701590007EE0FF04F0C3EF94C87480EC
:100CC00094804004A37401F0900085E070139000BC
:100CD0008C120F4994B8EE940B4006900085740175
:010CE000F023
:100CE100D007D006D005D004D003D002D001D00067
:0B0CF100D0D0D082D083D0F0D0E03211
:10169F000000000000000005000A0BB800C800643D
:1016AF0000020000000000040000FFFFFFFFFFFF2B
:1016BF000014022604081105007C022604080E05FA
:1016CF00006C022604080E05006A022604081005A5
:1016DF00006702260408120500700226040813058D
:0216EF00005F9A
:041D650041005B00DE
:081E6E00E4900046F0A3F0220D
:0B1E23009016A9E493FE740193FF22C7
:0B1E2E009016ADE493FE740193FF22B8
:081E56009016A7740193FF220E
:031E99007F0122A4
:101B8900AD07ED75F008A424C7F582E43416F58392
:101B9900E493FEED75F008A424C8F582E43416F543
:0C1BA90083E4937C002400FFEC3EFE224D
:101DE400EF75F008A424C4F582E43416F583E49373
:021DF400FF22CC
:081E5E009016A1740193FF220C
:101DF600EF75F008A424C5F582E43416F583E49360
:021E0600FF22B9
:081E6600900000E0C313FF220D
:0A1E4300900000E075F00384FF2218
:10004600121B89EF7803C333CE33CED8F9FF7C0079
:050056007D0A02052EE9
:10164C00E4FBFAF50DF50CF50BF50A750D7DF50CB3
:10165C00F50BF50AEBC39417748094805032AF0DE0
:10166C00AE0CAD0BAC0A78011205F88F0D8E0C8DFB
:10167C000B8C0A30D71774132AF582E43400F583E7
:10168C00EBF00AEAC394067480948050030B80C478
:02169C008A4181
:01169E002229
:10000E00EF1460121460141460111460152404703F
:10001E00199016C180089016C280039016C3E493FF
:0D002E00FF229016B3740193FF227F002281
:101CEB009016A5740193900000F09016BF740193A9
:0B1CFB00900048F012164C121E6E22E2
:10099C00E4F50AF50EF50DF50CF50BF512F511F560
:1009AC0010F50F121E9F5003020AB0121C528F0E2C
:1009BC008E0D8D0C8C0BE4FBEBC395415047AF0EA9
:1009CC00AE0DAD0CAC0B78011205F88F0E8E0D8DA3
:1009DC000C8C0B30D72CE47F01FEFDFC74132BF533
:1009EC0082E43400F583E0F9F812060BE5124FF5BA
:1009FC0012E5114EF511E5104DF510E50F4CF50F04
:100A0C00050A0B80B3AF0A7E00C3EF940274809486
:100A1C00804018D200EF9403748094804005121E1D
:100A2C00A28008121E5EEF6002C200200028E4FFC4
:100A3C00FEFDFCAB12AA11A910A80FC31205E760AA
:100A4C0010900047E004F07006900046E004F0803F
:100A5C001C121E6E8017900044E004F0700690008B
:100A6C0043E004F0E4F512F511F510F50F121E2316
:100A7C00D3900047E09F900046E09E4006121EA2D5
:100A8C00121E6ED3900044E0942C900043E094012D
:100A9C00401D121EA290005B7401F0E4900043F024
:100AAC00A3F0800B9016AFE4740193FF120AC4AF4D
:070ABC0012AE11AD10AC0FEA
:010AC3002210
:041D690041009F0096
:100CFC0075F0029000491206ACE0FEA3E0FFE5158A
:100D0C0075F0029000190206ACE51475F002900023
:100D1C00010206ACE51475F0029000310206AC74C9
:100D2C00252518F582E43400F58322D3E5169FEED1
:100D3C006480F8E51564809822743D2514F582E4EE
:100D4C003400F58322D3FFED9FEE6480F8EC6480D1
:100D5C00982274552514F582E43400F58322E004BE
:100D6C00F0740D2514F582E43400F58322E5157535
:100D7C00F0029000490206ACFEC3E5179FEE6480BA
:100D8C00F8E51664809822E53C5540FFE53B553F5D
:100D9C00FEE53A553EFDE539553DFC22742B2514F4
:100DAC00F582E43400F58322E4F0FFFEFDFCAB3C5D
:100DBC00AA3BA93AA839C30205E77E0090009BE044
:100DCC00FCA3E0FD12051C8EE78FE622E0FEA3E0FB
:100DDC00FF75F00222A4FFE0C39FE5F06480F87475
:100DEC00809822900048E0FB3395E0FAEBAE0222AB
:100DFC00E0FCA3E0FDEF22E0FCA3E0C39F22900007
:080E0C0048E0FF3395E0FE22EF
:0C1E1700EF4E6007EF1F70F81E80F522F0
:03005B0002133855
:10133800C0E0C0F0C083C082C0D075D000C000C07B
:0D13480001C002C003C004C005C006C007FC
:10135500C2029000A0E0120D0CE5E5F0A3E5E4F073
:101365009000A0E004F0E0C39541400BE4F090004C
:1013750045E04480F08002D2029000A0E0FF121DFB
:10138500E4120DC69000A0E0FF121DF6E5E25480C0
:101395004FF5E29000A0E02413F582E43400F583D4
:0A13A500E04480F5E8300202D2EEC9
:1013AF00D007D006D005D004D003D002D001D00092
:0B13BF00D0D0D082D083D0F0D0E0323C
:1014B300D2AF75E880C201E49000A0F0900045F03F
:1014C300121CEBE4FF12000EEF2401FDE433FC7E5B
:1014D3000B7FB812052E90009BEEF0A3EFF0E4FF14
:1014E300121DE4120DC67F0212000EEFC454F0FE6B
:1014F300C006E4FF12000ED0E02FF5E17F031200D7
:101503000EE5E254804FF5E27F0112000E8FE312E5
:10151300174043A910900013E042E8121A6A021D13
:0115230006C1
:031E9C00D2EE2261
:101C2D00E4FD900045E0547FF0D2EE900045E020B9
:101C3D00E7127FE87E03121E1743CF100DEDC394FC
:041C4D003240E82217
:011C51002270
:101A6A00750A10121C2DAF0A150AEF70F6121C9592
:101A7A00121E568F0A121C2DE4F50BE50BC3954175
:101A8A005009AF0B121001050B80F0AF0A150AEFCF
:021A9A0070E3F7
:011A9C002227
:101D0600E4FFEFC395415012EF120D0C120DFC12B9
:0A1D16000D17ECF0A3EDF00F80E8CC
:011D200022A0
:101C5200E49000A1F0F513E513C39541500EAF13C4
:101C6200121001AF1312005E051380EBAF3CAE3BC6
:041C7200AD3AAC39A2
:011C7600224B
:02005E008F14FD
:10006000E4F51C75F002EF120D1A120DD8E514120A
:100070000D0F120E03F516EC9EF515E47F01FEFD43
:10008000FCA914A80112060B8F408E3F8D3E8C3DBB
:10009000AF14121B898E1A8F1BC3E516951BE51A28
:1000A000120D3C40057517018003E4F517E5176450
:1000B0000160030201E574252514120D2FE0C3949D
:1000C000FA500A74252514120D2FE004F0120D9336
:1000D000E4FBFAF9F8C31205E760030201C89000D7
:1000E00000E0F519121E99EF6028E4F517F518E500
:1000F00018C39541500F120D2BE0C3940140020527
:1001000017051880EAE517C394034006740F2519F4
:10011000F51974252514120D2FE0C395195003020B
:1001200001C8E4F517121E5EEF7051F518E518C30B
:100130009541501AE51465186010121E43120D2BDC
:10014000E0C39F40057517018004051880DF121E6B
:1001500099EF7052E517704EF518E518C3954150A8
:1001600045E51465186011121E43742B2518120DF5
:10017000ACE0C39F4002802B051880DE121E99EF71
:100180007024F519F518E518C39541500F120D2B81
:10019000E0C3940240020519051880EAE519C394EA
:1001A000034003751701E517B40102D200E53C4591
:1001B00040FFE53B453FFEE53A453EFDE539453D1F
:1001C0008F3C8E3B8D3AF539120D45E4F0120D5EF1
:1001D000E4F0120D20E4F0A3F0740D2514F582E490
:1001E00034000203B8AF14120046120D3740081253
:1001F0000DA8E004F0800B9000A1E004F0120DA81F
:10020000E4F0120E0AC3E49FFDE49EFCC3E5169DD4
:10021000EC120D3C4066120D375061120D45E41290
:100220000D6C120DB46003020325120D20E5158537
:1002300016F0120583121E2E120D20E0FCA3E0C35F
:10024000120D544009120D15E475F0018021121EA3
:100250002EC3E49FFFE49EFE120D20E0FCA3E0C34A
:10026000120D544003020325120D1574FFF5F01210
:100270000583120D20E4F0A3F0020325900048E06E
:10028000FFFD3395E0FCC3E49DFDE49CFCC3E51653
:100290009DEC120D3C5057120D45120D6AE4F01200
:1002A0000D45E0FE75F00A84E5F07034EEC3946409
:1002B000400E120D45E4F0D20190005B04F0802066
:1002C000120D15C083C082120DFCA2E713FF3395F7
:1002D000E0FEC3ED9FFFEC9ED082D083F0A3EFF051
:1002E00090009AE06514703D74FFF0020325120E31
:1002F0000A120D37402F120D45120DB47027120D42
:100300006D120D6AE0B4201D120D6DE4F0900048EE
:10031000E0A2E713A2E713FF3395E0FE120D15EEFE
:100320008FF0120583120D934D4E4F70030203C4DC
:10033000E51BAE1A7802CEA2E713CE13D8F8FFC39E
:10034000E51B9FFFE51A9EFEC3120D38506F120D7C
:100350005EE004F0121E668F19E4F518E518C395E7
:1003600041500F120D2BE0C39401400205170518F0
:1003700080EAE517C394034006900000E0F51912E7
:100380000D5EE0C395194072120D5EE4F0AF40AE11
:100390003FAD3EAC3D1205DAE53C5FFFE53B5EFE5E
:1003A000E53A5DFDE5395C8F3C8E3B8D3AF539745D
:1003B000252514F582E43400F583E4F022120D5E65
:1003C000E014F02274252514120D2FE4F0E54114F9
:1003D000651470269000A1E0C39541401DE4F51816
:1003E000E518C39541500D120D2BE0600375170100
:0A03F000051880ECE5177002C2004A
:0103FA0022E0
:101C9500E4FFEFC39541501575F002EF120D0F12D9
:0D1CA5000DFC120D7BECF0A3EDF00F80E5BF
:011CB200220F
:021001008F1549
:10100300EF120CFC120E03F517EC9EF516AF15123A
:101013001B89AD07AC06D3E5179DEC120D8A500B67
:10102300C3E49DFFE49C120D84500B120D0AE0FEF5
:10103300A3E0FF0210A9ECA2E713FEED13FFD31206
:101043000D86500BC3E49FFFE49E120D84502712BC
:101053000D79E0FCA3E0FDECC313FEED13FFC3ED3C
:101063009FFDEC9EFC120D0AE0C313FEA3E0132DBB
:10107300FFEC3EFE8030120D79E0FCA3E0FDAE04F0
:101083007803CEC313CE13D8F9FFC3ED9FFDEC9EB7
:10109300FC120D0AE0FEA3E07803CEC313CE13D8EF
:1010A300F92DFFEC3EFE120D79EEF0A3EFF0E515FE
:0810B300120CFCEEF0A3EFF0BB
:0110BB002212
:031E9F00A201227B
:031EA200D2012248
:10174000E4FFEFC39541502B74252F120D2FE4F0C9
:10175000743D2F120D49E4F074552F120D62E4F020
:10176000EF120D22E4F0A3F0742B2F120DACE4F075
:101770000F80CFE4F53CF53BF53AF53990009A74CB
:0B178000FFF0E490009DF0A3F0C20118
:01178B00223B
:020AC4008F138E
:100AC60090009FE0C394034035E4F090005BE07033
:100AD60022F514E514C39541501975F002E5141278
:100AE6000D7E120DD8E514120D1AEEF0A3EFF005E7
:100AF6001480E0121740C201E490005BF0229000DF
:100B060099E004F0E0B51308121C95E490009AF001
:100B1600900099E0D395135003020BE2E4F514E537
:100B260014C39541507A75F002E514120D7E120D2C
:100B3600D8E514120D0F120E03FFEC9EAD07FC90C4
:100B4600005BE07029120DEF7802C333CE33CED8A6
:100B5600F9120D514040E49BFFE49AFEEF7802C380
:100B660033CE33CED8F9C3120D52502A8032120D2D
:100B7600EF7803C333CE33CED8F9120D514017E4C4
:100B86009BFFE49AFEEF7803C333CE33CED8F9FF4A
:100B9600C3120D53400AAF141210010514020B259F
:100BA600E514B5410690009AE004F0E51375F008E7
:100BB600900099120DE14024E4F0C20090009FE0FD
:100BC60004F0E51375F00490009A120DE1400DE46F
:0C0BD60090009FF0121D06121740C20193
:010BE20022F0
:10122400020003E493A3F8E493A34003F68001F2DD
:1012340008DFF48029E493A3F85407240CC8C333CB
:10124400C4540F4420C8834004F456800146F6DF9A
:10125400E4800B0102040810204080901D55E47EB8
:10126400019360BCA3FF543F30E509541FFEE4938F
:10127400A360010ECF54C025E060A840B8E493A356
:10128400FAE493A3F8E493A3C8C582C8CAC583CA81
:10129400F0A3C8C582C8CAC583CADFE9DEE780BE39
:011D6D000075
:1003FB00E709F608DFFA8046E709F208DFFA803EE4
:10040B0088828C83E709F0A3DFFA8032E309F608D0
:10041B00DFFA8078E309F208DFFA807088828C8338
:10042B00E309F0A3DFFA806489828A83E0A3F608EC
:10043B00DFFA805889828A83E0A3F208DFFA804CC6
:10044B0080D280FA80C680D4806980F2803380109D
:10045B0080A680EA809A80A880DA80E280CA803306
:10046B0089828A83ECFAE493A3C8C582C8CCC5837E
:10047B00CCF0A3C8C582C8CCC583CCDFE9DEE7804E
:10048B000D89828A83E493A3F608DFF9ECFAA9F0CD
:10049B00EDFB2289828A83ECFAE0A3C8C582C8CC23
:1004AB00C583CCF0A3C8C582C8CCC583CCDFEADE3C
:1004BB00E880DB89828A83E493A3F208DFF980CC9E
:1004CB0088F0EF60010E4E60C388F0ED2402B40497
:1004DB000050B9F582EB2402B4040050AF2323453E
:0604EB00822390044B7314
:1004F100BB010689828A83E0225002E722BBFE0209
:09050100E32289828A83E493223B
:10050A00BB010689828A83F0225002F722BBFE01D0
:02051A00F322CA
:10051C00EF8DF0A4A8F0CF8CF0A428CE8DF0A42EF3
:02052C00FE22AD
:10052E00BC000BBE0029EF8DF084FFADF022E4CCB1
:10053E00F875F008EF2FFFEE33FEEC33FCEE9DEC7A
:10054E00984005FCEE9DFE0FD5F0E9E4CEFD22EDC0
:10055E00F8F5F0EE8420D21CFEADF075F008EF2F0A
:10056E00FFED33FD4007985006D5F0F222C398FDFB
:05057E000FD5F0EA2298
:10058300C5F0F8A3E028F0C5F0F8E5821582700203
:060593001583E038F022A0
:10059900A3F8E0C5F025F0F0E58215827002158315
:0605A900E0C838F0E82272
:1005AF00BB010A89828A83E0F5F0A3E02250068717
:1005BF00F009E71922BBFE07E3F5F009E3192289D9
:0B05CF00828A83E493F5F0740193220C
:0D05DA00CFF4CFCEF4CECDF4CDCCF4CC22B6
:1005E700EB9FF5F0EA9E42F0E99D42F0E89C45F06A
:0105F70022E1
:1005F800E8600FECC313FCED13FDEE13FEEF13FFE1
:03060800D8F12204
:10060B00E8600FEFC333FFEE33FEED33FDEC33FC4D
:03061B00D8F122F1
:10061E00BB010DE58229F582E5833AF5830206F0EA
:10062E005007E92582F80206E4BBFE07E92582F8A9
:10063E000206FCE58229F582E5833AF58302070876
:10064E00BB010789828A8302075A5005E9F802071F
:0A065E004EBBFE05E9F80207662214
:10066800BB010DE58229F582E5833AF58302075A35
:100678005007E92582F802074EBBFE07E92582F8F4
:0406880002076622DD
:10068C00BB010789828A830207255005E9F8020716
:10069C0018BBFE05E9F802073189828A8302073EFE
:0C06AC00A42582F582E5F03583F5832259
:1006B800EF4E6012EF60010EEDBB010B89828A8359
:1006C800F0A3DFFCDEFA2289F05007F709DFFCA966
:0C06D800F022BBFEFCF309DFFCA9F022BD
:0C06E400E6FC08E6FD08E6FE08E6FF2242
:0C06F000E0FCA3E0FDA3E0FEA3E0FF227D
:0C06FC00E2FC08E2FD08E2FE08E2FF223A
:10070800E493FC740193FD740293FE740393FF2237
:0D071800E6FB08E6F908E6FA08E6CBF82251
:0C072500E0F8A3E0F9A3E0FAA3E0FB2257
:0D073100E2FB08E2F908E2FA08E2CBF82248
:10073E00E493F8740193F9740293FA740393FB2211
:0C074E00ECF608EDF608EEF608EFF622D7
:0C075A00ECF0A3EDF0A3EEF0A3EFF02212
:0C076600ECF208EDF208EEF208EFF222CF
:00000001FF
